:020000040800F2
:1000000000C00720E92A01089D0900089F0900088F
:10001000A1090008A3090008A509000800000000C4
:10002000000000000000000000000000716E0008E9
:10003000A709000800000000116F0008756F000894
:10004000392B0108392B0108392B0108392B0108FC
:10005000392B0108392B0108392B0108392B0108EC
:10006000392B0108392B0108392B0108392B0108DC
:10007000392B0108392B0108392B0108392B0108CC
:10008000392B0108392B0108392B0108392B0108BC
:10009000392B0108392B0108392B0108392B0108AC
:1000A000392B0108392B0108392B0108392B01089C
:1000B000392B0108392B0108392B0108392B01088C
:1000C000392B0108392B0108392B0108392B01087C
:1000D000392B0108392B0108392B0108392B01086C
:1000E000392B0108392B0108392B0108392B01085C
:1000F000392B0108392B0108392B0108392B01084C
:10010000392B0108392B0108392B0108392B01083B
:10011000392B0108392B0108392B0108A9090008DE
:10012000392B0108392B0108392B0108392B01081B
:10013000392B0108B9090008C9090008392B010841
:10014000392B0108392B0108392B0108392B0108FB
:10015000392B0108392B0108392B0108392B0108EB
:10016000392B0108392B0108392B0108392B0108DB
:10017000392B0108392B0108392B01080000000038
:10018000392B0108392B0108392B0108392B0108BB
:10019000392B0108392B0108392B0108392B0108AB
:1001A000392B0108392B0108392B0108392B01089B
:1001B000392B0108392B0108392B0108392B01088B
:1001C000392B0108392B010800000000392B0108E8
:1001D000392B0108392B0108392B0108392B01086B
:1001E000392B0108392B0108392B0108392B01085B
:0801F000392B0108392B01082D
:1002000010B5054C237833B9044B13B10448AFF350
:1002100000800123237010BDA80002200000000010
:100220007840010808B5034B1BB103490348AFF3FD
:10023000008008BD00000000AC00022078400108EA
:1002400010F8012B11F8013B012A28BF9A42F7D080
:10025000D01A7047034613F8012B002AFBD1181A55
:10026000013870470000000000000000000000009E
:1002700001F0FF01102A2BDB10F0070F08D010F857
:10028000013B013A8B422DD010F0070F42B3F6D15B
:10029000F0B441EA012141EA014122F007047FF074
:1002A00000070023F0E80256083C85EA010586EACB
:1002B000010685FA47F5A3FA87F586FA47F6A5FA07
:1002C00087F68EB9EED1F0BC01F0FF0102F0070213
:1002D00032B110F8013B013A83EA010313B1F8D1BE
:1002E0000020704701387047002D06BF354603389F
:1002F000073815F0010F07D1013015F4807F02BFD8
:10030000013015F4C03F0130F0BC0138704700BF28
:1003100053B94AB9002908BF00281CBF4FF0FF316C
:100320004FF0FF3000F088B9ADF1080C6DE904CE54
:1003300000F006F8DDF804E0DDE9022304B07047C0
:100340002DE9F047089D8E4604468846002B4AD189
:100350008A42174662D9B2FA82F64EB1C6F120033C
:1003600001FA06F820FA03F3B74043EA0808B4405C
:100370004FEA174E1FFA87FCB8FBFEF1230C0EFB69
:10038000118843EA084301FB0CF29A4209D9FB1891
:1003900001F1FF3080F0EA809A4240F2E7800239B2
:1003A0003B449A1AA3B2B2FBFEF00EFB102243EAC2
:1003B000024300FB0CFC9C4509D9FB1800F1FF32FD
:1003C00080F0D6809C4540F2D3803B44023840EA1E
:1003D0000140A3EB0C0300211DB1F3400022C5E94D
:1003E0000032BDE8F0878B4205D90DB1C5E90001A7
:1003F00000210846F5E7B3FA83F1002946D1734599
:1004000002D3824200F20581841A6EEB03020120BE
:100410009046002DE5D0C5E90048E2E7002A00F04B
:100420009080B2FA82F6002E40F0A4808A1A030C63
:100430004FEA174E80B2BCB20121B2FBFEFC0EFBAC
:100440001C2243EA024304FB0CF29A4207D9FB1830
:100450000CF1FF3802D29A4200F2E080C4469B1AA7
:10046000B3FBFEF20EFB123340EA034302FB04F43B
:100470009C4207D9FB1802F1FF3002D29C4200F2E5
:10048000CA8002461B1B42EA0C40A5E7C1F12006C8
:100490008B4022FA06F71F430EFA01F420FA06F306
:1004A0002EFA06FE4FEA1749234300FA01F81FFA15
:1004B00087FCBEFBF9F01C0C09FB10EE44EA0E446D
:1004C00000FB0CFEA64502FA01F209D93C1900F125
:1004D000FF3A80F09C80A64540F2998002383C4467
:1004E000A4EB0E041FFA83FEB4FBF9F309FB1344DB
:1004F0004EEA044403FB0CFCA44508D93C1903F163
:10050000FF3E80F08280A4457FD9023B3C4443EA11
:100510000040A4EB0C04A0FB02EC64457346E146EA
:1005200062D35FD05DB1B8EB030264EB090404FA57
:1005300006F622FA01F31E43CC40C5E9006400210F
:100540004FE7B1FBF2FC010C41EA0E4180B240EAF8
:1005500001423B4638463C46B846BE462026B1FBE3
:10056000F7F1A2EB080241EA0C4166E7014618E701
:1005700010462CE7C6F120022EFA02F3B740B14034
:1005800020FA02F24FEA174E0A43B3FBFEF8BCB260
:100590000EFB1833110C41EA034108FB04F9B0408B
:1005A00089454FEA104380B23ED9791808F1FF3CE3
:1005B00001D289451FD8A1EB0901B1FBFEF909FB66
:1005C00004F80EFB191192B242EA0142424529D2C7
:1005D000BA1809F1FF31C4D24245C2D2A9F10201D1
:1005E0003A44BEE7F0459DD2BEEB02036CEB070C2C
:1005F0000138E14696E7A7EB09094944A8F1020C46
:10060000B1FBFEF909FB04F8DBE773467FE75046D0
:1006100066E70846FDE63B44023A33E7ACF1020CDC
:100620003B441CE749469CE7A1EB0901C446B1FBEA
:10063000FEF909FB04F8C4E7704700BF08B50120C4
:1006400004F0C6F8FBE7000008B5044A002104489E
:1006500004F02AF8034B186008BD00BF2878010891
:100660003D060008C4000220F0B58DB000240794B8
:10067000089409940A940B94364B1A6B42F00402C6
:100680001A631A6B02F004020192019A1A6B42F08B
:1006900080021A631A6B02F080020292029A1A6BAD
:1006A00042F001021A631A6B02F001020392039AEC
:1006B0001A6B42F002021A631A6B02F002020492F1
:1006C000049A1A6B42F008021A631A6B02F00802CD
:1006D0000592059A1A6B42F040021A631B6B03F0F5
:1006E00040030693069B1C4F224644F28101384684
:1006F00001F0C0FB194D22464021284601F0BAFB0B
:100700004FF4005307934FF488130893099407A9F3
:10071000134801F0ADFA44F28103079301260896CD
:1007200009940A9407A9384601F0A2FA40230793D6
:10073000089609940A9407A9284601F099FA80239B
:1007400007930894099407A9284601F091FA0DB07F
:10075000F0BD00BF00380240000402400018024013
:100760000008024010B584B0002400940194029463
:10077000039400F0C5FB01238DF800308DF8014093
:1007800001941F228DF8082087228DF809208DF80A
:100790000A408DF80B408DF80C308DF80D308DF837
:1007A0000E408DF80F40684600F0C8FB042000F0B2
:1007B000B5FB04B010BD000008B50268034B9A42B7
:1007C00000D008BD00F002FBFBE700BF00140040B2
:1007D00072B6FEE700B595B03422002107A812F0EA
:1007E0009CFC00230293039304930593069301F06A
:1007F000EDFB234B1A6C42F080521A641B6C03F021
:1008000080530093009B1F4B1A6842F440421A60C9
:100810001B6803F440430193019B012307934FF4AA
:10082000A023089302230D934FF480020E9204221A
:100830000F92D8221092119309221292139307A8B3
:1008400001F00AFCB0B901F0C9FBA8B90F2302936B
:1008500002230393002304934FF4A05305934FF412
:1008600080530693072102A801F086FE30B915B027
:100870005DF804FBFFF7ACFFFFF7AAFFFFF7A8FF47
:10088000003802400070004008B5002383F311884F
:10089000FFF768FF00F08FFAFFF79CFFFFF7E4FE19
:1008A00000F004F900F064F903F0A2FEFFF7CCFEBB
:1008B00011F088FD03F0BAFEFEE7000000B583B03A
:1008C0000D4B1A6C42F080521A641A6C02F080527E
:1008D0000092009A5A6C42F480425A645B6C03F4B2
:1008E00080430193019B00220F216FF0010000F073
:1008F000E9FA03B05DF804FB0038024030B589B076
:100900000446214B1A6C42F020021A641B6C03F05F
:1009100020030193019B02A903A801F009FF069B94
:10092000CBB901F0E5FE0346184AA2FB03239B0C5A
:10093000013B1748174A026040F2E732C260436049
:10094000002303618360836102F0A6FB054630B19A
:10095000284609B030BD01F0CBFE4300E4E70C4867
:1009600002F006FA05460028F2D1372000F0BAFA64
:100970000F2C01D90125EBE700222146372000F09A
:10098000A1FA054B1C60E3E70038024083DE1B43FD
:10099000C80002200014004008000220FEE7FEE725
:1009A000FEE7FEE7FEE7704708B5024802F02CFAC2
:1009B00008BD00BFC800022008B5024800F0D2FF01
:1009C00008BD00BFDC06022008B5024800F0CAFFDF
:1009D00008BD00BFDC06022001207047024B162232
:1009E0001A604FF0FF307047845A032008B54FF06B
:1009F000FF31FFF7F3FFFEE770B50C461646002502
:100A000006E0AFF30080214601F8010B01350C46EA
:100A1000B542F6DB304670BD70B50C461646002573
:100A200004E014F8010BAFF300800135B542F8DBA8
:100A3000304670BD4FF0FF3070474FF400534B60AD
:100A400000207047012070470020704710B4034613
:100A50000C4A0D490D48006850B10C480068034429
:100A6000521A934208D8094A13605DF8044B704744
:100A70000648074C0460F0E7064B0C221A604FF062
:100A8000FF30F2E700C0072000040000140102203C
:100A900018790320845A0320034AD2F8883043F49B
:100AA0007003C2F88830704700ED00E008B50B48CD
:100AB0000B4B03604FF4E133436000238360C3605A
:100AC00003610C2242618361C3610362436202F0ED
:100AD00051FE00B908BDFFF77BFEFBE718010220BD
:100AE0000048004010B5ACB0044600212791289181
:100AF00029912A912B91902203A812F00EFB2268D3
:100B0000184B9A4201D02CB010BD4FF48073039360
:100B100003A801F02BFE10BB134B1A6C42F4802289
:100B20001A641A6C02F480220192019A1A6B42F044
:100B300008021A631B6B03F008030293029B4FF435
:100B400040732793022328930023299303232A9396
:100B500007232B9327A9054801F08AF8D3E7FFF76D
:100B600037FED9E70048004000380240000C024040
:100B700008B50C484FF0A04303600623037102221E
:100B8000C27100238371427201228272C3720373A5
:100B90008273C37301F07DF900B908BDFFF718FE39
:100BA000FBE700BFA001022070B5ACB004460021F5
:100BB0002791289129912A912B91902203A812F034
:100BC000ACFA2368B3F1A04F01D02CB070BD4FF444
:100BD0000013039303A801F0C9FD002835D11C4C74
:100BE000236B43F001032363236B03F001030093A2
:100BF000009B4FF4E853279302232893002529955F
:100C000003232A930A232B93124E27A9304601F07F
:100C10002FF84FF4007327932895299527A930467C
:100C200001F026F8636B43F080036363636B03F0AA
:100C300080030193019B636C43F480436364636CA2
:100C400003F480430293029BBFE7FFF7C1FDC6E7B1
:100C5000003802400000024088B1CA6892B18A6838
:100C60009AB10A69A2B10A6882604A68C260CA6819
:100C700042618A6802610A698261002070474FF010
:100C8000FF3070474FF0FF3070474FF0FF30704734
:100C90004FF0FF30704770B582B000230193446875
:100CA0000CBB0546836803B1984720232B600026C0
:100CB00002E06FF0040601341F2C0DD86B6901AA05
:100CC0001221204698470028F3DB019B03F01F0305
:100CD000A342F0D12C6000262B681F2B07D81EB929
:100CE00001236B6000E00026304602B070BD6FF05B
:100CF0000206F9E710B582B0044600230193436968
:100D000001AA012100689847002839DB636901AA1C
:100D1000012120689847002835DB019B13F0040F60
:100D200034D0636901AA002120689847002830DB8D
:100D3000019B13F4805F0CD103F40452B2F5045FFD
:100D40002AD013F4005F29D113F4807F28D0042027
:100D50001DE0636901AA1F2120689847002821DB54
:100D6000019B13F4805F20D003F01C03182B1ED0CE
:100D7000082B1ED0142B01D0052008E0042006E02B
:100D80006FF0040003E06FF0040000E0012002B007
:100D900010BD6FF00400FAE70220F8E70320F6E741
:100DA0000520F4E76FF00400F1E70620EFE70220EA
:100DB000EDE70320EBE708B5032000F071F80F2002
:100DC000FFF79CFDFFF77AFD002008BD034A11687C
:100DD000034B1B780B441360704700BF8006022052
:100DE00004000220014B1868704700BF80060220F3
:100DF00038B50446FFF7F6FF0546B4F1FF3F02D0D1
:100E0000044B1B781C44FFF7EDFF401BA042FAD3B4
:100E100038BD00BF04000220014BD3F82004704706
:100E200000F0F01F014BD3F82404704700F0F01FCE
:100E3000014BD3F82804704700F0F01F002804DBB2
:100E40000901C9B2044B1954704700F00F000901A1
:100E5000C9B2024B1954704700E400E014ED00E001
:100E600000B500F00700C0F1070CBCF1040F28BF6B
:100E70004FF0040C031D062B0FD9C31E4FF0FF3E8D
:100E80000EFA0CF021EA000199400EFA03FE22EA64
:100E90000E0241EA02005DF804FB0023EEE70000C9
:100EA0000649CB6823F4E0631B041B0C000200F42A
:100EB000E0600343024A1A43CA60704700ED00E055
:100EC0000000FA0510B50446054BD868C0F30220AF
:100ED000FFF7C6FF01462046FFF7B0FF10BD00BF79
:100EE00000ED00E0002807DB00F01F0240090123AD
:100EF0009340024A42F82030704700BF00E100E012
:100F0000BFF35F8F044B5A6A22F480325A62002288
:100F1000C3F89420704700BF00ED00E040F00100EE
:100F2000054BC3F894005A6A42F480325A62BFF308
:100F30004F8FBFF36F8F704700ED00E04378144A86
:100F4000C2F89830D2F8A03023F00103C2F8A030E4
:100F50004368C2F89C30017BC37A1B0643EA0173E5
:100F6000817A43EAC143417B43EA8143817B43EA7F
:100F70004143C17B43EA0143417A43EA0123017AB9
:100F800043EA410301780B43C2F8A030704700BF29
:100F900000ED00E02DE9F04182B005460023019309
:100FA000D0F8688008F1120350F82340C66E01277C
:100FB00014E001A803F09EF8019B13B12362A36023
:100FC00011E000270FE06B6943F48043636013E096
:100FD00003F1120255F82240013E9846BEB1B7B166
:100FE000236A002BE5D0002FF8D0AB6D002BEAD19F
:100FF0006A69134B13436360236843F00043236023
:1010000008F10103032BE3D9A8F10303E0E7EB6E3A
:10101000B34211D008F1030303F00303BFF35F8F62
:101020002A6903EB830302EBC3022B6803F58053A9
:101030009A60C5F86880EE6602B0BDE8F08100BF36
:10104000004000805079137943EA002307480B5091
:10105000D07893781B0443EA0063507843EA002376
:1010600012781343024A8B50704700BF4080024001
:101070004480024030B4002208E0C468DC6051F8CB
:101080000C3043F4400341F80C300132032A1FD8DE
:10109000C16802EB82034FEAC30C01EBC3030024D7
:1010A00041F80C405C609C60DC60941D40F824308A
:1010B00051F80C4044F4801441F80C40022ADCD86A
:1010C000541C04EB8404C56805EBC404DC60D6E75B
:1010D00000238362C268036803F580531A6130BC41
:1010E000704710B4002202E00169D9600132032A7E
:1010F00028D8046902EB82034FEAC30C04EBC30354
:10110000002144F80C1059609960D9601962596245
:101110004FF0004144F80C10416941F4804159609E
:10112000596821F00041596002F1120140F8213064
:10113000022AD9D80469511C01EB810104EBC104D6
:10114000DC60D3E70023C36503668366C3668365FB
:101150000269036803F58053DA605DF8044B704759
:10116000F0B5856A00EB85039B698C681E68002ECC
:10117000C0F2B3802E1D00EB8606F669002E40F00B
:10118000AE8026689E605E686FF30C0667683E431B
:101190005E600E6816F0010F05D01E6826F440064A
:1011A0004F693E431E600E6816F0200F05D01E6882
:1011B00026F040660F693E431E60096811F0040F77
:1011C00003D0196841F080011960196841F080511D
:1011D00019602F4600264FF0010E27E0196821F014
:1011E000804119602EE000EB8C039B69196800298F
:1011F00030DB0CF1040100EB8101C96951BB1968B6
:1012000021F0805119600EF1010EA46821689960E7
:1012100059686FF30C016768394359600136BFF3B1
:101220005F8F196841F0004119606746A16851B3AA
:10123000196821F000511960002ACFD0196841F0D7
:101240008041196007F1010CBCF1030FCBD9A7F164
:10125000030CC8E700EB85039969002204E000EB6A
:101260008301896901321D4672450AD2BFF35F8F3F
:101270000B6823F000430B606B1C032BEFD9EB1EB4
:10128000EDE70220F0BD1AB31A6842F080421A60FE
:101290001A6842F000521A6000EB8505AA69BFF394
:1012A0005F8F136843F000431360C26B3B1D00EB7C
:1012B0008303DA618762EFF31082012383F31088DE
:1012C000036C33440133036482F310880020D9E7B0
:1012D0001A6822F080421A60DAE70220D2E7022080
:1012E000D0E7000070B505460C46026813683C491B
:1012F0001940A37B5B06207C002861D14FF40000DD
:101300000343607C00285DD14FF480000343A06854
:101310000343E07F43EA004360690343A07F002862
:1013200052D14FF400500343207F43EA0033A069B9
:101330000343207943EA802394F82000002845D114
:101340004FF400700343E07B43EAC013606A034339
:1013500094F8280043EA00130B4313602B681E68BF
:101360000120FFF745FD2B681E6029688A6922F07D
:10137000BE021204120CA36C1B0494F84C0038BB80
:1013800080200343206D034394F85500012821D0A9
:101390000020034394F8560001281DD00020034389
:1013A00094F85400012819D00020034313438B61A3
:1013B0002B689C690120FFF71BFD2B689C6170BDA9
:1013C00000209DE70020A1E70020ACE70020B9E75E
:1013D0000020D6E70820DCE70420E0E70220E4E76D
:1013E0000F8120FD70B505460C46026802F580535A
:1013F0009B692B491940237B002B4DD14FF0806313
:10140000607B43EA4063607F002847D14FF480103F
:101410000343A07B43EA405360690343207F43EAD0
:10142000C013A07F43EA8013206A034394F824008A
:1014300043EA80030B4302F5805293612B6803F566
:1014400080539E690120FFF7D3FC2B6803F580537E
:101450009E612279A36843EA4263A2691343226929
:10146000134394F8252043EAC213A26A43EA820395
:10147000226813432A6843F4000302F58052136084
:101480002B6803F580531C680120FFF7B1FC2B6823
:1014900003F580531C6070BD0023B1E70020B7E75F
:1014A000233FDEF870B5A4B0064601258DF83C5008
:1014B0008DF83D5000240D948DF84B408DF84A5026
:1014C0008DF848408DF83A508DF830508DF84C40EA
:1014D0008DF83B4014948DF854401D948DF878405D
:1014E0001F948DF882408DF880404FF48043109314
:1014F0004FF4006311938DF881400BA9FFF7F2FEC2
:101500008DF80C508DF80D508DF81D508DF80E5043
:1015100005948DF81C408DF81E4008948DF82450D9
:101520008DF804504FF4803302934FF480030693F8
:101530004FF4005304938DF825500A9400946946A3
:101540003046FFF74FFF24B070BD10B582B004469F
:1015500000230193036803F580539A6942F48012D3
:101560009A61036803F580539B6901930120FFF79B
:101570003FFC2368019A03F580539A6102B010BDC5
:10158000002868D030B583B00446D0F88430002BF2
:1015900032D0324B5A6C42F480425A645B6C03F492
:1015A00080430193019B2E4B5A6822F400025A603B
:1015B0005A68A1680A435A605B68236803F5805340
:1015C0001A6842F001021A60FFF70CFC0546236816
:1015D00003F580531B6813F0010F13D0FFF702FCD3
:1015E000401BB0F5FA7FF2D90423C4F88830E02319
:1015F000C4F8843001202CE02023C0F8843002F0AD
:10160000C5FBC6E72046FFF74DFF2046FFF732FD3A
:101610002046FFF766FD626800212046FFF712FDB5
:101620002268D36B43F40273D3632268D2F80C119F
:101630000C4B0B43C2F80C312268D2F8103143F442
:101640000313C2F810310020C4F888001023C4F836
:10165000843003B030BD0120704700BF0038024025
:101660000038014060000200D0F88430102B01D017
:101670000120704770B504462023C0F8843001254E
:1016800085650423C366FFF785FC23681E6828462A
:10169000FFF7AEFB23681E60236803F580539A6949
:1016A00042F400529A61236803F580539A6942F02C
:1016B00002029A612046FFF748FF2268136843F050
:1016C0000803136023681E682846FFF791FB236810
:1016D0001E602268136843F004031360236803F557
:1016E0008053D969034A0A43DA614023C4F884303D
:1016F000002070BDC1A0010038B5D0F88430402B67
:1017000001D0012038BD04462023C0F8843003688E
:1017100003F58053D9691F4A0A40DA61036803F56B
:1017200080539A6922F400529A61036803F580534A
:101730009A6922F002029A610268136823F0040396
:10174000136003681D680120FFF752FB23681D60CA
:101750002046FFF7FAFE2268136823F0080313609F
:1017600023681D680120FFF743FB23681D600023E9
:1017700008E003F1120254F822104A6842F00042D5
:101780004A600133032BF4D90020A0651023C4F86C
:101790008430B7E73E5FFEFF10B5044629B1D4F8A8
:1017A0008430402B09D0012010BDD0F8883043F0A0
:1017B0000103C0F888300120F6E74B6BE363012298
:1017C0002046FFF7CDFC38B1D4F8883043F002034F
:1017D000C4F888300120E7E7BFF34F8FA36A5A1C93
:1017E000A262032A01D9033BA362236803F5805256
:1017F000526912F0040F08D003F5805304225A6195
:10180000236803F5805300225A600020CCE72DE9BD
:10181000F84F044681B18A46D0F88430402B6CD111
:10182000C76D07F1120350F82350C36EC3F10409CA
:101830004FF00008464634E0D0F8883043F001030A
:10184000C0F88830012059E02B6813F4007F02D0E3
:101850000023236663662B68C3F30D4B2B6813F4D8
:10186000807F03D02B6823674FF00108AA682A62A3
:101870005B4604F1800104F17C0002F061FC236E00
:1018800001332366636E5B44636600232B627B1C1B
:10189000032B00D9FB1E03F1120254F8225001362B
:1018A0001F462B68002B14DB88F001034E4510D235
:1018B0007BB12B6813F4807F03D0EB69A367AB691E
:1018C00063672B6813F4007FBED1E36F002BBBD19D
:1018D000DDE7E36E3344E3662BB9E765B8F1000F4B
:1018E00005D101200AE02046FFF754FBF5E7E36F3E
:1018F000CAF800300020E06700E00120BDE8F88F62
:10190000F8B50646056C446C012712E0631C032BF6
:1019100021D9033C0DE002F03FFC231D06EB8303BD
:101920000022DA61631C032B00D9E31E3564736463
:101930001C4695B18FB1013D231D06EB8303D86989
:101940000028E3D0F26804EB8403DB00D358002BBB
:10195000E1DA0027EDE71C46EBE70020F8BD704711
:10196000704700002DE9F04104460368D3F8388041
:1019700003F580525569D669364A576915F0400F0C
:1019800002D016F0400F34D115F0010F02D016F03E
:10199000010F35D115F4004F23D016F4004F20D09D
:1019A000D4F8883043F00803C4F8883015F4005F99
:1019B00030D0236803F580535A6922F07F4222F425
:1019C000010222F45F4222F0FF02C4F88C20DA699F
:1019D00022F4C032DA61E023C4F88430204602F0F9
:1019E000C1F918F0080F20D117F4002F2AD1BDE853
:1019F000F08103F58053184A5A6102F0A3F9C3E756
:101A0000236803F580534FF001125A61204602F01B
:101A1000A1F9BFE7236803F580535A6948F2806152
:101A20000A40C4F88C205961D8E72368DB6A03F0C8
:101A30006003C4F894302046FFF791FF0023C4F8F8
:101A40009430D1E7034B4FF400225A612046FFF750
:101A500087FFCCE7003C014040000100F8B5054697
:101A60001E460068036903F01C03C90289B21943CA
:101A7000940104F4F8640C4344F001040461FFF79A
:101A8000B1F9074601E02B681C6914F0010F07D07B
:101A9000FFF7A8F9C01BB0F5803FF4D3012004E0A4
:101AA0002B685B699BB233600020F8BD70B50546BA
:101AB0000668306900F01C00C90289B20143940134
:101AC00004F4F8640C4344F003049BB273612B6884
:101AD0001C61FFF787F9064601E02B681C6914F0CA
:101AE000010F07D0FFF77EF9801BB0F5803FF4D3DC
:101AF000012000E0002070BD002979D00268126842
:101B0000C2F3001281F828200268126802F0600215
:101B10004A620268126812F4007F0CBF01220022A0
:101B200081F8202002681268C2F30042CA77026876
:101B3000126812F4005F0CBF012200228A7702684B
:101B40001268C2F300320A770268126802F4006277
:101B50008A610268126802F480424A61026812686F
:101B600012F4800F0CBF012200224A74026812682E
:101B700012F4000F0CBF012200220A7402681268DE
:101B8000C2F3C012CA730268126802F460228A604B
:101B900002681268C2F380220A7102681268C2F3F6
:101BA00040628A7302689269C2F3400281F854204D
:101BB0000268926912F0800F0CBF0122002281F8A6
:101BC0004C200268926902F030020A65026892694C
:101BD000120C8A6402689269C2F3800281F856206E
:101BE00002689269C2F3C00281F855200020704754
:101BF0000120704751B108B5D0F88430102B01D0C6
:101C0000012008BDFFF76EFB0020FAE701207047B6
:101C100038B5054603681C6924F01C0400F062FD19
:101C20000C4B984204D844F008042B681C6138BD62
:101C3000094B984202D244F00C04F6E7074B984255
:101C4000F3D9074B984202D844F00404EDE744F07E
:101C50001004EAE7BF0E160200879303FFE0F505C4
:101C60007FD1F008D0F888007047D0F88C0070471A
:101C700000230F2B00F2F48070B582B066E0856817
:101C80004FEA430E032404FA0EF425EA0405CC6857
:101C900004FA0EF42C438460446824EA02044A687F
:101CA000C2F300129A40224342605DE0DC0808342F
:101CB00050F8242003F00705AD004FF00F0E0EFA88
:101CC00005FE22EA0E0E0A69AA4042EA0E0240F818
:101CD00024205DE0092200E0002202FA0EF22A43ED
:101CE0000234604D45F824205F4A94686FEA0C0284
:101CF00024EA0C054E6816F4801F01D04CEA040556
:101D0000594CA560E46802EA04054E6816F4001F09
:101D100001D04CEA0405544CE560646802EA04050D
:101D20004E6816F4003F01D04CEA04054E4C656045
:101D3000246822404D6815F4803F01D04CEA04022B
:101D4000494C226001330F2B00F2888001229A4017
:101D50000C6804EA020C32EA0404F3D14C6804F083
:101D60000304013C012C8AD94A6802F00302032AC9
:101D700009D0C4685D000322AA4024EA02048A68EC
:101D8000AA402243C2604A6802F00302022A8DD0B0
:101D900004684FEA430E032202FA0EF224EA020418
:101DA0004A6802F0030202FA0EF2224302604A6815
:101DB00012F4403FC6D02D4A546C44F4804454641D
:101DC000526C02F480420192019A9C08A51C254A9B
:101DD00052F8255003F0030E4FEA8E0E0F2202FA3E
:101DE0000EF225EA0205224A90423FF475AF02F551
:101DF0008062904222D002F58062904220D002F5AB
:101E0000806290421ED002F5806290421CD002F5A2
:101E1000806290421AD002F58062904218D002F59A
:101E20008062904216D002F58062904214D002F592
:101E3000806290423FF44EAF0A224EE701224CE707
:101E400002224AE7032248E7042246E7052244E744
:101E5000062242E7072240E708223EE702B070BDB3
:101E6000704700BF00380140003C0140003802408C
:101E7000000002400AB18161704709048161704726
:101E8000436901EA030221EA030141EA0241816157
:101E9000704730B583B0002800F0828004460568A2
:101EA00090F89534C3B1032384F89534B5F1A04F6D
:101EB00017D0206801F0FEFC237C8DF80030231D34
:101EC0000ECB206801F0B4FC70B1022384F8953485
:101ED0000125284603B030BD80F89434FEF764FE37
:101EE000E1E70023A371E4E70021206801F010FE80
:101EF000024608B9034617E0022384F89534012509
:101F0000E7E703EBC30104EB8101012048750B7582
:101F1000CB8500200876C861086203EBC30104EB9F
:101F2000810148620133DBB220799842E9D816E09A
:101F300002EBC20304EB8303002183F8551283F8FC
:101F4000542283F85812C3F85C12C3F8601202EBF3
:101F5000C20304EB8303C3F864120132D2B290428D
:101F6000E6D8237C8DF80030231D0ECB206801F0CD
:101F7000F7FC054658B900236374012384F89534AF
:101F8000237B012B08D0206801F0B0FDA1E70223DC
:101F900084F8953401259CE7204600F003F8F2E729
:101FA000012596E7034602680121C0F8D8140020F5
:101FB00083F8CC04936943F000639361516D024B45
:101FC0000B435365704700BF03000010024A1368BB
:101FD00043F48073136070470070004010B582B006
:101FE0001B4B1A6C42F080521A641B6C03F0805336
:101FF0000193019B174A136843F480331360FEF783
:10200000F1FE0446134B5B6813F4803F08D1FEF7E2
:10201000E9FE001BB0F57A7FF4D9032002B010BDB1
:102020000C4A136843F400331360FEF7DBFE0446EA
:10203000084B5B6813F4003F07D1FEF7D3FE001B8B
:10204000B0F57A7FF4D90320E8E70020E6E700BF87
:102050000038024000700040002800F0068270B591
:1020600082B00446036813F0010F29D0954B9B689A
:1020700003F00C03042B1AD0924B9B6803F00C0363
:10208000082B0FD06368B3F5803F40D0002B54D1AC
:102090008C4B1A6822F480321A601A6822F480226B
:1020A0001A6039E0874B5B6813F4800FEAD0854BE8
:1020B0001B6813F4003F03D06368002B00F0D78146
:1020C000236813F0020F74D07E4B9B6813F00C0F43
:1020D0005ED07C4B9B6803F00C03082B53D0E36865
:1020E000002B00F08980774A136843F001031360E6
:1020F000FEF778FE0546734B1B6813F0020F72D192
:10210000FEF770FE401B0228F5D90320B4E16D4AAA
:10211000136843F48033136063682BB3FEF762FEE9
:102120000546684B1B6813F4003FC9D1FEF75AFE01
:10213000401B6428F5D903209EE1B3F5A02F09D0F8
:10214000604B1A6822F480321A601A6822F48022E6
:102150001A60E1E75B4B1A6842F480221A601A6841
:1021600042F480321A60D7E7FEF73CFE0546554B35
:102170001B6813F4003FA3D0FEF734FE401B642815
:10218000F5D9032078E14F4B5B6813F4800FA6D19B
:102190004C4B1B6813F0020F03D0E368012B40F097
:1021A0006881484A136823F0F803216943EAC103B0
:1021B0001360236813F0080F46D0636983B3414A64
:1021C000536F43F001035367FEF70CFE05463D4B8A
:1021D0005B6F13F0020F37D1FEF704FE401B02289D
:1021E000F5D9032048E1374A136823F0F803216941
:1021F00043EAC1031360DCE7324A136823F00103AA
:102200001360FEF7EFFD05462E4B1B6813F0020F1F
:10221000CFD0FEF7E7FD401B0228F5D903202BE1C4
:10222000284A536F23F001035367FEF7DBFD054691
:10223000244B5B6F13F0020F06D0FEF7D3FD401B5B
:102240000228F5D9032017E1236813F0040F7DD08D
:102250001C4B1B6C13F0805F1ED11A4B1A6C42F0A2
:1022600080521A641B6C03F080530193019B01257B
:10227000154B1B6813F4807F10D0A368012B25D069
:10228000002B3BD10F4B1A6F22F001021A671A6F15
:1022900022F004021A671EE00025E9E70A4A1368E3
:1022A00043F480731360FEF79DFD0646064B1B68E2
:1022B00013F4807FE1D1FEF795FD801B6428F5D9EA
:1022C0000320D9E00038024000700040724A136FCA
:1022D00043F001031367A36833B3FEF783FD06469B
:1022E0006D4B1B6F13F0020F2FD1FEF77BFD801B90
:1022F00041F288339842F3D90320BDE0052B09D081
:10230000654B1A6F22F001021A671A6F22F004025D
:102310001A67E0E7604B1A6F42F004021A671A6FFF
:1023200042F001021A67D6E7FEF75CFD06465A4BFB
:102330001B6F13F0020F08D0FEF754FD801B41F213
:1023400088339842F3D9032096E0FDB9A369002BA6
:1023500000F09180504A926802F00C02082A59D08D
:10236000022B19D04C4A136823F080731360FEF7D8
:1023700039FD0446484B1B6813F0007F48D0FEF738
:1023800031FD001B0228F5D9032075E0424A136C89
:1023900023F080531364D9E73F4A136823F0807316
:1023A0001360FEF71FFD05463B4B1B6813F0007FD3
:1023B00006D0FEF717FD401B0228F5D903205BE08D
:1023C000E369226A1343626A43EA8213A26A5208EB
:1023D000013A43EA0243E26A43EA0263226B43EAB8
:1023E00002732D4A5360136843F080731360FEF745
:1023F000F9FC0446284B1B6813F0007F06D1FEF75A
:10240000F1FC001B0228F5D9032035E0002033E061
:10241000002031E0204A5268012B2FD002F48003C3
:10242000E1698B422CD102F03F03216A8B4229D112
:10243000616A47F6C0731340B3EB811F24D102F4E5
:102440004031A36A5B08013BB1EB034F1ED102F0A0
:102450007063E16AB3EB016F1AD102F0E042236BC3
:10246000B2EB037F16D1002006E001207047012067
:1024700002E0012000E0002002B070BD0120FBE777
:102480000120F9E70120F7E70120F5E70120F3E754
:102490000120F1E70120EFE70038024008B5334B97
:1024A0009B6803F00C03042B5BD0082B5BD12F4BF4
:1024B0005A6802F03F025B6813F4800F2CD02B4B5C
:1024C0005868C0F388104FEA401CBCEB000C6EEB60
:1024D0000E0E4FEA8E1343EA9C634FEA8C11B1EB68
:1024E0000C0163EB0E03DB0043EA5173C90011EBEF
:1024F000000C43F10003590200234FEA4C2041EA4B
:10250000DC51FDF705FF194B5B68C3F30143013351
:102510005B00B0FBF3F008BD144B5868C0F38810A3
:102520004FEA401CBCEB000C6EEB0E0E4FEA8E1314
:1025300043EA9C634FEA8C11B1EB0C0163EB0E0391
:10254000DB0043EA5173C90011EB000C43F10003B7
:10255000990200234FEA8C2041EA9C51FDF7D8FEF6
:10256000D1E70348D7E70348D5E700BF003802406A
:1025700000127A000024F400002800F0A08070B55A
:102580000D460446524B1B6803F00F038B420BD2DF
:102590004F4A136823F00F030B431360136803F0D3
:1025A0000F038B4240F08D80236813F0020F17D089
:1025B00013F0040F04D0474A936843F4E053936048
:1025C000236813F0080F04D0424A936843F4604331
:1025D0009360404A936823F0F003A1680B43936033
:1025E000236813F0010F31D06368012B20D0022B38
:1025F00025D0384A126812F0020F64D035498A6833
:1026000022F0030213438B60FEF7ECFB0646314BCE
:102610009B6803F00C036268B3EB820F16D0FEF7E1
:10262000E1FB801B41F288339842F0D9032045E05A
:10263000284A126812F4003FE0D101203EE0254A0A
:10264000126812F0007FD9D1012037E0204B1B68BF
:1026500003F00F03AB420AD91D4A136823F00F039E
:102660002B431360136803F00F03AB422DD1236893
:1026700013F0040F06D0174A936823F4E053E1687F
:102680000B439360236813F0080F07D0114A936837
:1026900023F46043216943EAC1039360FFF7FEFE20
:1026A0000C4B9B68C3F303130B4AD35CD8400B4B12
:1026B00018600B4B1868FEF721F9002070BD01204F
:1026C00070470120FAE70120F8E70120F6E700BF94
:1026D000003C02400038024054780108000002200B
:1026E00008000220014B1868704700BF000002205C
:1026F00008B5FFF7F7FF044B9B68C3F38223034A37
:10270000D35CD84008BD00BF003802404C780108B7
:1027100008B5FFF7E7FF044B9B68C3F34233034A56
:10272000D35CD84008BD00BF003802404C78010897
:102730000F2303600B4B9A6802F0030242609A6811
:1027400002F0F00282609A6802F4E052C2609B6874
:10275000DB0803F4E0530361034B1B6803F00F0332
:102760000B60704700380240003C0240F0B583B077
:102770000446066816F001060DD0B54B9A6822F49F
:1027800000029A609A68416B0A439A60436B002B7F
:1027900000F067810026256815F4002511D0AC4AA9
:1027A000D2F88C3023F44013E16B0B43C2F88C3029
:1027B000E36BB3F5801F00F05681002B00F05581CC
:1027C0000025236813F4801F0FD0A14AD2F88C3063
:1027D00023F44003216C0B43C2F88C30236CB3F517
:1027E000800F00F0448103B90125236813F0807F36
:1027F00000D0012613F0200F40F03B81236813F036
:10280000100F0CD0924BD3F88C2022F08072C3F8BA
:102810008C20D3F88C20A16B0A43C3F88C2023684A
:1028200013F4804F08D08A4AD2F8903023F4403312
:10283000616E0B43C2F89030236813F4004F08D048
:10284000834AD2F8903023F44023A16E0B43C2F8A0
:102850009030236813F4803F08D07D4AD2F890303E
:1028600023F44013E16E0B43C2F89030236813F455
:10287000003F08D0764AD2F8903023F44003216F0D
:102880000B43C2F89030236813F0400F08D0704A11
:10289000D2F8903023F00303616C0B43C2F8903000
:1028A000236813F0800F08D0694AD2F8903023F0E3
:1028B0000C03A16C0B43C2F89030236813F4807FA3
:1028C00008D0634AD2F8903023F03003E16C0B4318
:1028D000C2F89030236813F4007F08D05C4AD2F825
:1028E000903023F0C003216D0B43C2F89030236871
:1028F00013F4806F08D0564AD2F8903023F4407316
:10290000616D0B43C2F89030236813F4006F08D058
:102910004F4AD2F8903023F44063A16D0B43C2F8C4
:102920009030236813F4805F08D0494AD2F8903081
:1029300023F44053E16D0B43C2F89030236813F445
:10294000005F08D0424AD2F8903023F44043216E11
:102950000B43C2F89030236813F4800F08D03C4A30
:10296000D2F8903023F08063A16F0B43C2F890300F
:10297000236813F4001F0DD0354AD2F8903023F0AD
:102980000063E16F0B43C2F89030E36FB3F1006F67
:1029900000F0D580236813F0080F00D0012513F450
:1029A000802F08D02A4AD2F8903023F04073616F0C
:1029B0000B43C2F89030236813F4000F09D0244A67
:1029C000D2F8903023F08053D4F880100B43C2F833
:1029D0009030236813F0806F09D01D4AD2F89030F0
:1029E00023F00053D4F884100B43C2F890302368CE
:1029F00013F0006F09D0164AD2F88C3023F0007320
:102A0000D4F888100B43C2F88C30236813F0805F31
:102A100009D00F4AD2F88C3023F08063D4F88C10A0
:102A20000B43C2F88C3026B9236813F0007F00F006
:102A30000681074A136823F080631360FEF7D2F91A
:102A40000646034B1B6813F0006F7AD002E000BF0C
:102A500000380240FEF7C6F9801B6428F1D9032034
:102A6000F0E0012697E60126A7E60125A9E6012662
:102A7000B9E67F4B1A6C42F080521A641B6C03F06B
:102A800080530193019B7B4A136843F48073136066
:102A9000FEF7A8F90746774B1B6813F4807F06D131
:102AA000FEF7A0F9C01B6428F5D90320CAE0704BDB
:102AB0001B6F13F4407315D0226B02F440729A42DC
:102AC00010D06B4B1A6F22F44072196F41F48031B1
:102AD0001967196F21F4803119671A671B6F13F09A
:102AE000010F12D1236B03F44072B2F5407F1DD069
:102AF0005F4A936823F4F81393605D490B6F226B70
:102B0000C2F30B0213430B6778E6FEF76BF9074637
:102B1000574B1B6F13F0020FE4D1FEF763F9C01B94
:102B200041F288339842F3D903208BE05048826801
:102B300022F4F812504919400A438260DDE701256A
:102B400028E7236813F0010F13D0636B8BB9484A51
:102B5000D2F88430D2F88410606803F4403343EA3A
:102B6000801301F070610B43A16843EA0173C2F85E
:102B70008430236813F4002F03D0E26BB2F5801F7A
:102B800006D013F4801F1ED0236CB3F5800F1AD12A
:102B9000374AD2F88430D2F88410606803F44033A6
:102BA00043EA8013E06843EA006301F0E0410B432D
:102BB000C2F88430D2F88C3023F01F03616A0139E7
:102BC0000B43C2F88C30236813F0807F11D0284A61
:102BD000D2F88400D2F88410666823691B0443EAA3
:102BE000861300F07060034301F0E0410B43C2F82C
:102BF0008430236813F0007F0DD0626823691B04C2
:102C000043EA8213E26843EA0263A26843EA02737A
:102C1000174AC2F88430164A136843F08063136081
:102C2000FEF7E0F80646124B1B6813F0006F06D162
:102C3000FEF7D8F8801B6428F5D9032002E0012DA7
:102C400002D0002003B0F0BD094A136823F080537E
:102C50001360FEF7C7F80546054B1B6813F0005FCD
:102C60000CD0FEF7BFF8401B6428F5D90320E9E734
:102C70000038024000700040FFFCFF0F236813F48F
:102C8000002F01D0E26B22B113F4801F1DD0236C02
:102C9000DBB9354AD2F88830D2F88810606903F47D
:102CA000403343EA8013A06943EA006301F0E04146
:102CB0000B43C2F88830D2F88C3023F4F853A16A61
:102CC000013943EA0123C2F88C30236813F4001F52
:102CD00003D0E36FB3F1006F31D0236813F0080F16
:102CE00019D0214AD2F88810D2F88830606903F4EC
:102CF000403343EA801301F070610B43E16943EA1A
:102D00000173C2F88830D2F88C3023F44033E16A82
:102D10000B43C2F88C30144A136843F0805313609D
:102D2000FEF760F80446104B1B6813F0005F19D1E2
:102D3000FEF758F8001B6428F5D9032082E70A4AF9
:102D4000D2F88800D2F888106569236A1B0443EA28
:102D5000851300F07060034301F0E0410B43C2F8BB
:102D60008830BAE700206DE7003802407047000065
:102D700090F83D30DBB2012B3AD1022380F83D3090
:102D80000268D36843F00103D36003681A4AB3F1C1
:102D9000804F18BF93421DD0A2F57C42934219D0B8
:102DA00002F58062934215D002F58062934211D001
:102DB00002F5784293420DD002F57052934209D049
:102DC000A2F59432934205D01A6842F001021A60CB
:102DD000002070479968094A0A40062A18BFB2F5D0
:102DE000803F07D01A6842F001021A600020704745
:102DF00001207047002070470000014007000100DB
:102E0000704770477047704770B504460368DE68C6
:102E10001D6915F0020F10D016F0020F0DD06FF0E3
:102E200002021A610123037703689B6913F0030F01
:102E300064D0FFF7E6FF0023237715F0040F12D0CC
:102E400016F0040F0FD023686FF004021A610223FA
:102E5000237723689B6913F4407F55D02046FFF702
:102E6000D0FF0023237715F0080F12D016F0080FBB
:102E70000FD023686FF008021A61042323772368B8
:102E8000DB6913F0030F46D02046FFF7BAFF00239B
:102E9000237715F0100F12D016F0100F0FD0236803
:102EA0006FF010021A61082323772368DB6913F49B
:102EB000407F37D02046FFF7A4FF0023237715F08B
:102EC000010F02D016F0010F33D115F4025F02D0CA
:102ED00016F0800F35D115F4807F02D016F0800FE8
:102EE00037D115F0400F02D016F0400F39D115F050
:102EF000200F02D016F0200F3BD170BDFFF780FFEE
:102F00002046FFF77FFF96E72046FFF779FF204630
:102F1000FFF778FFA5E72046FFF772FF2046FFF78F
:102F200071FFB4E72046FFF76BFF2046FFF76AFF0B
:102F3000C3E723686FF001021A612046FDF73CFCED
:102F4000C3E723686FF402521A61204600F0D5F8F7
:102F5000C1E723686FF480721A61204600F0CEF852
:102F6000BFE723686FF040021A612046FFF74BFF6E
:102F7000BDE723686FF020021A61204600F0BCF81C
:102F8000BBE7000070B403683C4A904214BF0022C3
:102F90000122B0F1804F14BF144642F00104ACB9D5
:102FA000374DA84214BF00250125364EB0420DD042
:102FB00065B905F1804505F58235A84214BF0025A5
:102FC000012506F50066B04200D01DB123F0700364
:102FD0004D682B43002C33D1294CA04214BF002450
:102FE0000124284DA8422BD054BB04F1804404F5A1
:102FF0008234A04214BF0024012405F50065A842D4
:103000001ED0ECB9204CA04214BF0024012405F5C9
:103010009A35A84214D09CB91C4CA04214BF00247D
:10302000012405F50065A8420AD04CB9184CA0420D
:1030300014BF00240124A5F59635A84200D01CB188
:1030400023F44073CC68234323F080034C6923436B
:103050008C68C4620C6884620E4CA04208BF42F0C7
:1030600001020AB10A690263026842F004020260C6
:1030700001224261036070BC704700BF0000014044
:1030800000080040000400400044014000180040D7
:10309000002000400004014060B310B5044690F8E1
:1030A0003D3013B3022384F83D30214651F8040B20
:1030B000FFF768FF012384F8483084F83E3084F835
:1030C0003F3084F8403084F8413084F8423084F84E
:1030D000433084F8443084F8453084F8463084F82E
:1030E000473084F83D30002010BD80F83C30FFF7B9
:1030F0003DFED7E701207047704770477047026870
:1031000052E8003F23F4907342E800310029F6D1E1
:10311000026802F1080353E8003F23F0010308327C
:1031200042E800310029F3D1036E012B06D02023A1
:10313000C0F880300023036683667047026852E857
:10314000003F23F0100342E800310029F6D1EEE7FA
:1031500010B5044683680269134342691343C26988
:10316000134301680868914A02401A430A602268C2
:10317000536823F44053E1680B435360A269236A08
:103180001A4321688B6823F4306313438B602368F0
:10319000874A934218D0874A93423AD0864A93424C
:1031A0004FD0864A93425ED0854A93426DD0854A7D
:1031B00093427FD0844A934200F09180834A9342A5
:1031C00000F0A28010230BE0814BD3F8903003F085
:1031D0000303032B1BD8DFE803F00216AB1801230F
:1031E000E069B0F5004F00F0D780082B00F238817D
:1031F000DFE813F014012701120136012A0136011C
:10320000360136012D010423EAE70823E8E71023FD
:10321000E6E76F4BD3F8903003F00C030C2B0ED87D
:10322000DFE803F0070D0D0D090D0D0D880D0D0DD7
:103230000B000023D4E70423D2E70823D0E71023B0
:10324000CEE7634BD3F8903003F03003202B73D0DC
:1032500005D8002B72D0102B72D10423C0E7302B7D
:1032600070D10823BCE75A4BD3F8903003F0C00369
:10327000802B69D005D8002B68D0402B68D104235F
:10328000AEE7C02B66D10823AAE7514BD3F89030A4
:1032900003F44073B3F5007F5ED006D8002B5DD0F9
:1032A000B3F5807F5CD104239AE7B3F5407F59D111
:1032B000082395E7464BD3F8903003F44063B3F509
:1032C000006F51D006D8002B50D0B3F5806F4FD18E
:1032D000042385E7B3F5406F4CD1082380E73C4BCE
:1032E000D3F8903003F44053B3F5005F44D006D8D0
:1032F000002B43D0B3F5805F42D1042370E7B3F5D0
:10330000405F3FD108236BE7314BD3F8903003F493
:103310004043B3F5004F37D005D8BBB3B3F5804F6A
:1033200036D104235CE7B3F5404F33D1082357E788
:10333000022355E7022353E7022351E700234FE717
:1033400010234DE710234BE7022349E7002347E70B
:10335000102345E7102343E7022341E700233FE71B
:1033600010233DE710233BE7022339E7012337E72A
:10337000102335E7102333E7022331E700232FE73B
:1033800010232DE710232BE7022329E7002327E74B
:10339000102325E7102323E7082B5BD8DFE803F091
:1033A0001A343A5A375A5A5A1E0000BFF369FFEFCF
:1033B000001001400044004000480040004C004024
:1033C000005000400014014000780040007C0040A4
:1033D00000380240FFF78CF900283DD0626853089E
:1033E00003EB4003B3FBF2F3A3F110014FF6EF72CE
:1033F000914233D89AB222F00F02C3F3420313432F
:103400002268D360002030E0FFF782F9E4E7FFF79D
:1034100045F8E1E71748E1E7164802E0FFF768F9E9
:1034200000B3636800EB5300B0FBF3F0A0F11002AF
:103430004FF6EF739A4217D8236880B2D860002005
:1034400013E0FFF765F9EBE7FFF728F8E8E74FF43B
:103450000040E6E7012008E0002006E0012004E04B
:10346000012002E0002000E001200023A366E366C3
:1034700010BD00BF0024F400436A13F0080F06D00B
:103480000268536823F40043416B0B435360436A63
:1034900013F0010F06D00268536823F40033816AE9
:1034A0000B435360436A13F0020F06D0026853685F
:1034B00023F48033C16A0B435360436A13F0040F53
:1034C00006D00268536823F48023016B0B435360DA
:1034D000436A13F0100F06D00268936823F48053F8
:1034E000816B0B439360436A13F0200F06D0026890
:1034F000936823F40053C16B0B439360436A13F04A
:10350000400F0AD00268536823F48013016C0B4308
:103510005360036CB3F5801F0BD0436A13F0800F28
:1035200006D00268536823F40023816C0B43536078
:1035300070470268536823F4C003416C0B43536027
:10354000EBE72DE9F84305460E4617469946DDF8A8
:1035500020802B68DC6936EA04040CBF01240024B7
:10356000BC423AD1B8F1FF3FF3D0FDF73BFCA0EBF2
:103570000900404534D8B8F1000F33D02B681A68E1
:1035800012F0040FE5D0B6F1400218BF0122802EE0
:10359000DFD0002ADDD0DA6912F0080F11D1DA6924
:1035A00012F4006FD5D04FF400621A622846FFF77C
:1035B000A6FD2023C5F88430002385F87830032049
:1035C0000CE008241C622846FFF799FDC5F88440EA
:1035D000002385F87830012000E00020BDE8F88362
:1035E0000320FBE70320F9E72DE9F04182B01E46F6
:1035F000C36F202B57D104460D469046002A18BFB2
:10360000002901D101204FE00023C0F8843021239C
:10361000C367FDF7E7FB0746A4F85080A4F8528083
:10362000A368B3F5805F02D04FF0000815E023696E
:103630003BB34FF0000810E02023E367032033E0A2
:1036400038F8023B2268C3F308039362B4F85220AF
:1036500092B2013A92B2A4F85220B4F852309BB21E
:1036600093B100963B46002280212046FFF769FF78
:103670000028E1D1002DE3D015F8012B23689A62D0
:10368000E4E7A8460025E8E700963B4600224021F3
:103690002046FFF756FF10B92023E36704E02023FC
:1036A000E367032000E0022002B0BDE8F08130B5FE
:1036B00083B004460023C0F88430FDF793FB054631
:1036C0002268126812F0080F0FD123681B6813F0EC
:1036D000040F26D12023E367C4F880300020206641
:1036E000606684F8780003B030BD6FF07E430093CD
:1036F000034600224FF400112046FFF722FF002866
:10370000E3D0226852E8003F23F0800342E8003112
:103710000029F6D12023E367002384F878300320C2
:10372000E1E76FF07E4300932B4600224FF48001C7
:103730002046FFF706FF0028CCD0226852E8003F61
:1037400023F4907342E800310029F6D1226802F197
:10375000080353E8003F23F00103083242E8003138
:103760000029F3D12023C4F88030002384F8783076
:103770000320B8E768B310B50446C36F03B324232E
:10378000E3672268136823F001031360636AE3B9F7
:103790002046FFF7DDFC012811D02268536823F48E
:1037A000904353602268936823F02A039360226851
:1037B000136843F0010313602046FFF778FF10BD44
:1037C00080F87830FDF78EF9D9E72046FFF754FEF0
:1037D000DEE70120704782B000230193019B013393
:1037E0000193019BB3F1706F1CD80369002BF5DACC
:1037F0000A23019302E0019B013B0193019B002BF3
:10380000F9D1036943F001030361019B0133019383
:10381000019BB3F1706F08D8036913F0010FF4D165
:10382000002000E0032002B070470320FBE7000007
:1038300084B010B5044603A880E80E009DF811304E
:10384000012B1FD1A36B23F48033A363E268184BD1
:103850001340E360E36823F44013E3609DF81830FD
:10386000012B0AD02046FFF7B6FF9DF80E30012B42
:1038700014D0BDE8104004B07047E36843F48013EF
:10388000E360EFE7E36843F04003E3602046FFF7BF
:10389000A2FFA36B43F48033A363E6E7A36843F07E
:1038A0000603A360A36843F02003A360E1E700BF21
:1038B000BFFFBDFF836823F00103836000207047D2
:1038C00082B000230193019B01330193019BB3F16B
:1038D000706F15D80369002BF5DA00230193890175
:1038E00041F020010161019B01330193019BB3F180
:1038F000706F08D8036913F0200FF4D1002000E0A6
:10390000032002B070470320FBE782B0002301933D
:10391000019B01330193019BB3F1706F13D80369CD
:10392000002BF5DA0023019310230361019B01337F
:103930000193019BB3F1706F08D8036913F0100F66
:10394000F4D1002000E0032002B070470320FBE721
:10395000D0F800381943C0F8001800207047000064
:1039600084B0F8B5044607A880E80E00002306E0FE
:1039700003F1400204EB82020021516001330E2B5F
:10398000F6D99DF8266006BBD4F8043843F002034C
:10399000C4F80438A36B23F40013A363236843F033
:1039A00040032360236843F0800323600023C4F8AE
:1039B000003E9DF82130012B11D19DF81F304BB9ED
:1039C00000212046FFF7C4FF0DE0A36B43F4001372
:1039D000A363EBE701212046FFF7BAFF03E00321D1
:1039E0002046FFF7B5FF10212046FFF769FF054687
:1039F00000B101252046FFF788FF00B1012504F53D
:103A0000006C0023CCF81030CCF81430CCF81C300B
:103A10000AE0CBB94FF00060C2F8000900220A6149
:103A20004FF67F328A6001339DF81C10994210D9FD
:103A300004EB431202F51061D2F800090028E8DB1C
:103A40000020C2F80009E9E74FF09040C2F80009F1
:103A5000E4E700230AE0BBB14FF09047C2F8007BD7
:103A6000002202614FF67F3282600133994210D901
:103A700004EB431202F53060D2F8007B002FEADB42
:103A80000027C2F8007BEBE74FF00067C2F8007B2D
:103A9000E6E7DCF8103023F48073CCF81030002314
:103AA000A3616FF0804363619DF81E301BB9A36969
:103AB00043F01003A361A2690A4B1343A3619DF86D
:103AC00022301BB1A36943F00803A361012E04D087
:103AD0002846BDE8F84004B07047A269024B134382
:103AE000A361F5E700383C8004000040D0F8003EB8
:103AF00023F00303C0F8003ED0F8043843F002037B
:103B0000C0F8043800207047406900F00100704799
:103B100038B50546C36823F0C043C360012913D0FC
:103B200019BBC36843F08043C36000240A20FDF73B
:103B30005FF90A342846FFF7E7FF08B1C72CF5D92B
:103B4000C82C14D0002038BDC36843F00053C360B4
:103B500000240A20FDF74CF90A342846FFF7D4FF69
:103B60000128EDD0C72CF4D9EAE70120EBE70120CA
:103B7000E9E700207047000000B583B000230193FF
:103B8000054B1B781BB1019803B05DF804FB01A93C
:103B90000248FDF73CFEF6E794070220DC0602200F
:103BA00038B5054612E074B12846FFF7E5FF044634
:103BB0000028F8D02B69294698470028F3D02046E2
:103BC00008F004F9EFE70648FDF79AFE4FF0FF31E1
:103BD000044B186800F0A2FF0028F7D1E4E700BF0B
:103BE000DC0602209007022030B58DB00C4630254F
:103BF0002A46002168460FF090FA2A4600216846BE
:103C00000FF08BFA2246002303E01168F1B1013373
:103C1000126822B3032B4CD8516803EB430C0CA859
:103C200000EB8C0C4CF8301C51894CF82C1C002BF0
:103C3000EBD003F1FF3C03EB43010DEB81010CEBF7
:103C40004C0C00EB8C0C4CF8281CDEE703EB43011A
:103C50000CA800EB8101002041F8280CD7E722894D
:103C6000164B5A60C3F808D05C63204608F020FA6F
:103C700012491348FDF790FDE8B11148FDF7F2FF36
:103C800010F0020F09D064210E4B186800F046FFB7
:103C900048B90B48FDF734FEEAE7204608F096F8ED
:103CA0006FF00B0007E0204608F090F86FF002007C
:103CB00001E06FF00B000DB030BD00BFA406022084
:103CC000DC0602208C07022008B50146054807F0F3
:103CD00031FD054B1B78012B00D008BD024B0022A3
:103CE0001A70FAE7647801089407022008B5FDF716
:103CF00079F808BD08B50248FDF78AFF002008BD25
:103D0000DC06022008B513460A4601460348FDF7C3
:103D1000A5FE00B908BD4FF0FF30FBE7DC0602202E
:103D200008B513460A4601460348FDF7BFFE00B931
:103D300008BD4FF0FF30FBE7DC06022008B5FDF7B9
:103D400051F808BD08B5024B186800F02BFF08BDFC
:103D50009007022008B5024B186800F023FF08BD49
:103D60008C07022008B5FDF780FF10F0800F04D10A
:103D7000044B186800F016FF08BD034B186800F0EC
:103D800011FFF5E78C0702209007022070B58CB078
:103D900000230793089309930A930B930268414BFE
:103DA0009A4201D00CB070BDA3F590431A6B42F05B
:103DB00000721A631A6B02F000720092009A1A6B7A
:103DC00042F080621A631A6B02F080620192019ADB
:103DD0001A6B42F000621A631A6B02F000620292E0
:103DE000029A1A6B42F004021A631A6B02F0040280
:103DF0000392039A1A6B42F001021A631A6B02F0E3
:103E000001020492049A1A6B42F002021A631A6BBE
:103E100002F002020592059A1A6B42F040021A6300
:103E20001B6B03F040030693069B32230793022487
:103E300008940A940B260B9607A91B48FDF718FF58
:103E4000862307930894002509950A940B9607A9E1
:103E50001648FDF70DFF4FF400530793089409959A
:103E60000A940B9607A91248FDF702FF4FF420535E
:103E70000793089409950A940B9607A90D48FDF736
:103E8000F7FE2A4605213D20FDF71CF83D20FDF7F1
:103E900029F82A4605213E20FDF714F83E20FDF7BB
:103EA00021F87FE700800240000802400000024045
:103EB0000004024000180240F0B59BB004466422A2
:103EC000002101A80FF029F92248FCF713FF94F80C
:103ED000393013F0040F01D001280BDD13F0040F6B
:103EE0002AD1012828DD831E032B25D8DFE803F023
:103EF0000C2A262E1848FDF7FFFB204607F0C4FDCC
:103F0000204607F013FE17E04FF400664FF4804799
:103F1000114D01A92846FDF7EFFD0796069701A967
:103F20002846FDF767FE2846FDF79EFB204607F072
:103F300089FD204607F0D2FD1BB0F0BD4FF40066AE
:103F40000027E5E700264FF48047E1E700263746E3
:103F5000DEE700BF84060220DC06022070B58CB0CC
:103F60000446444D444B2B600AAE304600F09DF9A8
:103F70006E604FF40003AB60404BEB60404B2B6135
:103F80004FF4C0636B612846FDF7FAFA06463D4DD3
:103F90003822002128460FF0C0F821232B604FF46F
:103FA00040036B61384807F071FB00221146012085
:103FB00000F04AFD354D286000221146012000F036
:103FC00043FD334B18602B68002B42D0002840D0B3
:103FD0002422002101A80FF0A0F82E4B01934FF4EA
:103FE000806306933023079301AA21462A4800F0F4
:103FF0005BFB88B3062384F838301E4B5B681A7865
:1040000084F832205A7884F833209A7884F834205F
:10401000DA7884F835201A7984F836205B7984F8C8
:10402000373040F2DC53238694F8393043F00A03EA
:1040300084F83930194D1A492846FCF70DFE2846F8
:10404000FCF729FE58B98EB92046FFF735FF0CB0B2
:1040500070BDFCF7BDFBBBE7FCF7BAFBCAE7204627
:1040600007F064FD204607F00FFDF0E7FCF7B0FB1A
:10407000EDE700BFDC06022000800240A0C0072060
:1040800000C00720A40602206478010890070220DF
:104090008C070220B4400108A13B000884060220DE
:1040A0000C00022010B5044680B10C4BE362732370
:1040B00084F83A30742384F83B30094B6361094B30
:1040C000A3612046FFF74AFF002010BD064B4FF4C6
:1040D000FB72064906480EF06BFFE6E768410108EF
:1040E000999F0008E93B0008C040010830410108E1
:1040F0004041010810B582B004460E4807F0EAFAC4
:1041000088B1034600F1200222600B4A02614FF49D
:10411000C06201922268009241220021084607F005
:10412000EBFD02B010BD054B01221A700023236085
:10413000F7E700BF64780108C93C00089407022033
:1041400030B4A2F12004002542F8205C22F8185C6B
:1041500022F8163C056825B10D682C600C600168DA
:1041600005E00460FAE70889184408810968002915
:10417000F9D1BFF34F8F04E00649C1F85C22203229
:10418000203B002BF8DCBFF34F8FBFF36F8F30BCA9
:10419000704700BF00ED00E008B507F017FE08BD4E
:1041A00000487047704101087047000002280FD88E
:1041B00008B503460A46074951F8300001EBC30130
:1041C00089881AB10122FDF755FE08BD0022FAE7E1
:1041D000704700BF70780108022800D9704708B501
:1041E000044B03EBC002918853F83000FDF748FE02
:1041F00008BD00BF7078010810B5002409E0064B27
:1042000003EBC4010022898853F83400FDF732FE25
:104210000134022CF3D910BD70780108002918BFB1
:10422000002800D1704708B564238AB201460248CD
:10423000FFF7DAF908BD00BF1801022040B110B540
:104240000446FCF707F801462046FFF7E7FF10BDDC
:104250007047000008B5FFF7F1FF02210148FFF7A2
:10426000DDFF08BDD04701080120704700487047B6
:10427000A540000808B5FFF71FFE08BD38B5054684
:10428000FCF7CAFD0446FCF7CDFD4440FCF7D0FD29
:1042900084EA000302222A7000226A70AA701A0CB3
:1042A000EA701A0A2A716B7138BD08B5FFF7E6FF8C
:1042B00008BD0000084B1868084BA3FB00308009BC
:1042C000074BA3FB0023C21A03EB52039B08C3EB6B
:1042D000C303C01A704700BF445102201F85EB5131
:1042E00025499224054B186880EA4030186080EA1E
:1042F0005040186080EA401018607047200002208B
:1043000010B504460CF0CCFE001B10BD08B5114BD7
:104310001B7803B908BD104B1868FFF7F1FFC823DD
:1043200003FB00F00D4BA3FB00239B09B0F57A7F44
:10433000F0D30B490A681A440A604FF47A7202FB00
:1043400003F3084AA2FB032303490A6802EB931212
:104350000A60DFE7515102204C510220D34D621018
:10436000445102201F85EB51F8B50CF099FE2B4B00
:104370001E6836B1861B4FD0284B186000231846A4
:1043800002E0186048E00133062B08D8244AD25CCA
:10439000002AF8D0234A52F823201044F3E70022E1
:1043A0004FF47A7408E004EB440304EB43131E4912
:1043B000A1FB03135C0901329042F4D8002529E0E7
:1043C0001A4B53F8257006FB07F7194BA3FB072779
:1043D000BF0904FB07F7A3FB0737BF09FFF782FFFD
:1043E000144BA3FB0023C21A03EB52031B0903EB7C
:1043F0004303C3EBC303C31A0F4951F825205A33B3
:1044000007FB03F30848A0FB030302EB531241F838
:1044100025200135052DD3D9F8BD00BF205102203C
:104420003C510220A07801081F85EB5188780108D3
:10443000D34D6210876118862451022001207047F5
:10444000034A00231360C2F80330024A1360704726
:104450003C5102204451022038B506283AD804467F
:1044600001290CD002291FD0002936D1FFF74EFFB9
:10447000FFF720FFA04214BF002501252BE0184BB9
:104480001D7845B3174B1B780BB1002523E0164B65
:104490001868FFF735FFB0F5967F01D200251AE0C6
:1044A000124B01221A5516E00D4B1D789DB10D4B94
:1044B0001B78012B01D000250DE00B4B1868FFF78E
:1044C0001FFFB0F5967F01D2002504E0074B0022C4
:1044D0001A5500E00025284638BD0025FBE700BF3F
:1044E0005051022024000220485102203C51022059
:1044F00008B5064B1B781BB1044B01221A7008BD8E
:104500000CF0CEFD024B1860F6E700BF51510220BF
:104510004C51022008B5FFF7F9FE024B00221A7039
:1045200008BD00BF5151022010B50446084B1B784E
:104530001BB1084B1B78834203D00CF0B1FD064B36
:104540001860044B1C70024B01221A7010BD00BF92
:10455000505102202400022048510220014B002229
:104560001A7070475051022008B5FFF7CFFE0023A4
:10457000024A1370024A137008BD00BF5151022055
:104580005051022008B5FFF7C1FE014B186808BD65
:1045900044510220C8207047C8207047012070474E
:1045A00008B5064B00221A605A609A60DA601A61F8
:1045B0005A610CF075FD024B186008BD24510220B1
:1045C0002051022088B110B50446FFF7CDFE00232C
:1045D00008E0064A52F8231044F82310002142F85C
:1045E00023100133052BF4D910BD7047245102204C
:1045F000EFF305837BB9EFF3108313B9EFF3118366
:104600001BB1094B1B68022B08D0074B186840B937
:1046100001221A6070476FF0050070476FF00500C7
:1046200070474FF0FF3070470C58022008B5EFF389
:104630000583A3B9EFF3108313B9EFF311831BB113
:104640000B4B1B68022B0DD0094B1B68012B0CD1A7
:10465000074B02221A6001F04DFD002008BD6FF0EB
:104660000500FBE76FF00500F8E74FF0FF30F5E7D6
:104670000C58022008B5EFF3058363B9EFF31083FC
:1046800013B9EFF311831BB1044B1B68022B02D04B
:1046900001F088FD01E001F08BFD08BD0C580220FF
:1046A0004FF47A7070470000F0B587B0002405948D
:1046B000EFF3058454BBEFF3108313B9EFF31183C9
:1046C0001BB12B4B1B68022B20D0F8B1002A34D031
:1046D000156893692BB11E46013B372B02D9002088
:1046E00015E01826536813F0010F3FD1546984B1C7
:1046F0004FEA940C93682BB1D7685B2F02D91769E6
:1047000007B184B943B14FF0FF330BB3059807B03D
:10471000F0BD4FF0800CEDE7D368A3B91369ABB1DE
:104720004FF0FF33F1E70293019700960B46624684
:10473000294601F0C5FB0590E8E715460023182639
:104740004FF0800CE1E74FF0FF33DEE70023DCE7BA
:1047500005AB019300960B461FFA8CF2294601F037
:10476000F0FB0128D2D000230593CFE70020CEE74D
:104770000C58022008B5002001F016FCFEE70000EE
:10478000EFF30583B3B910B50446EFF3108313B903
:10479000EFF311831BB10D4B1B68022B0DD07CB1C5
:1047A000204601F05FFC04280DD0204601F0FCFB00
:1047B000002010BD6FF0050070476FF00500F8E7AE
:1047C0006FF00300F5E76FF00200F2E70C580220EB
:1047D00008B5EFF3058383B9EFF3108313B9EFF353
:1047E00011831BB1084B1B68022B09D008B90020AC
:1047F00008BD01F049FE0020FAE76FF00500F7E779
:104800006FF00500F4E700BF0C580220EFF30583BA
:10481000C3B910B582B00446EFF3108313B9EFF3B8
:1048200011831BB10C4B1B68022B0ED001F0BAFC9C
:104830000190211A00290BDD01A801F0CDFD002017
:1048400002B010BD6FF0050070476FF00500F7E78C
:104850006FF00300F4E700BF0C58022070B5EFF3CF
:104860000586002E4DD10446EFF3108313B9EFF304
:1048700011831BB1264B1B68022B45D024B3636800
:1048800013F0010600D0012613F0080F3ED16CB3DF
:10489000A16811B1E3684F2B1DD8B9B14FF0FF33B8
:1048A0006BBB3EB3042000F0F8FD05462DB104B10A
:1048B00024682146284601F00BF9002D18BF002E70
:1048C00020D045F001051DE03346DDE7E3687BB10C
:1048D0004FF0FF33E4E726B1042000F0E9FD054680
:1048E000E4E7012000F0E4FD0546DFE70023D7E719
:1048F0000023D5E7012000F0D0FD0546D6E70025CE
:10490000DBE70025284670BD0025FBE70025F9E719
:104910000C580220EFF305822ABB10B503460C4663
:1049200020F0010003F00101EFF3108212B9EFF360
:1049300011821AB1154A1268022A17D0012B18D910
:1049400041B1214601F044F8012815D0B4B16FF00F
:10495000010012E0214600F060FF012811D094B15F
:104960006FF0010009E06FF0050070476FF005007F
:1049700003E06FF0030000E0002010BD6FF00200C4
:10498000FBE70020F9E76FF00200F6E70C58022081
:10499000EFF305820ABB08B5034620F0010003F0DF
:1049A0000101EFF3108212B9EFF311821AB1124A2A
:1049B0001268022A14D0012B15D929B100F087FD05
:1049C000012813D1002008BD00231A46194600F023
:1049D0008CFC01280DD10020F5E76FF00500704731
:1049E0006FF00500EFE76FF00300ECE76FF00200F7
:1049F000E9E76FF00200E6E70C580220EFF30583C9
:104A0000B3B910B520F00104EFF3108313B9EFF33D
:104A100011831BB10B4B1B68022B0CD001280DD945
:104A2000204601F069F8204601F07CF8002010BD16
:104A30006FF0050070476FF00500F8E76FF00300B6
:104A4000F5E700BF0C58022070B582B0EFF3058384
:104A5000002B57D10E461446EFF3108313B9EFF332
:104A600011831BB12C4B1B68022B4FD0B04234BFBB
:104A70000023012300284BD0002B49D04CB1A5685E
:104A800015B1E3684F2B14D8002D43D1E3680BB167
:104A900039E0002301280ED073BB314600F003FC3F
:104AA000054685B304B124682146284601F010F874
:104AB00029E00123EEE7B3B903220021012000F031
:104AC000A2FB0546002D18BF002EEAD000231A468F
:104AD0001946284600F009FC0128E2D0284601F0DA
:104AE00021F800250FE0A36803220092002211465E
:104AF00000F02CFB0546E5E7A268314600F0ACFB70
:104B00000546CEE70025284602B070BD0025FAE72D
:104B10000025F8E70025F6E70C58022090B310B501
:104B200082B00C468446EFF305839BB9EFF3108304
:104B300013B9EFF311831BB1194B1B68022B09D07A
:104B40002146604600F069FE012824D02CB36FF0A6
:104B5000010015E0CCB90021019101AA604600F0E6
:104B600059FF012814D1019850B14FF0E0234FF0C4
:104B70008052C3F8042DBFF34F8FBFF36F8F002017
:104B800002B010BD6FF0030070476FF00300F7E74D
:104B90006FF00200F4E70020F2E76FF00200EFE7A9
:104BA0000C58022090B300B583B08446EFF3058320
:104BB000ABB9EFF3108313B9EFF311831BB1184BAB
:104BC0001B68022B0BD000231A461946604600F0E2
:104BD0008CFB012820D1002003B05DF804FB0023EA
:104BE000019301A9604600F002FD012811D101984E
:104BF0000028F1D04FF0E0234FF08052C3F8042D8D
:104C0000BFF34F8FBFF36F8F0020E5E76FF0030016
:104C100070476FF00200DFE76FF00200DCE700BFD3
:104C20000C580220EFF30583A3B910B50446EFF347
:104C3000108313B9EFF311831BB10B4B1B68022BCD
:104C40000BD06CB1204600F057FF204600F06AFF01
:104C5000002010BD6FF0050070476FF00500F8E709
:104C60006FF00300F5E700BF0C58022070B582B06A
:104C7000EFF30583002B47D11446EFF3108313B9EC
:104C8000EFF311831BB1254B1B68022B40D00B1E89
:104C900018BF012300283DD0002B3BD06CB3A36884
:104CA0004BB1E2684F2A06D9226922B101FB00F517
:104CB0006669AE421BD273B14FF0FF3363BB002273
:104CC00000F0A1FA054605B304B124682146284640
:104CD00000F0FEFE19E0E3688BB9236913B14FF0D1
:104CE000FF33EBE763696BB14FF0FF33E6E7002575
:104CF000009500F02BFA0546E5E70023DEE74FF0CC
:104D0000FF33DBE70023D9E70025284602B070BD5A
:104D10000025FAE70025F8E70025F6E70C58022001
:104D200010B582B01C46EFF30583BBB9EFF31083D7
:104D300013B9EFF311831BB11E4B1B68022B0DD06F
:104D4000002918BF00282DD00023224600F0CDFAFC
:104D500001282AD05CB36FF0010018E0002918BFC9
:104D6000002816D0C4B90023019301AA00F0D1FB9A
:104D7000012814D1019850B14FF0E0234FF0805238
:104D8000C3F8042DBFF34F8FBFF36F8F002002B025
:104D900010BD6FF00300FAE76FF00300F7E76FF064
:104DA0000200F4E76FF00300F1E70020EFE76FF097
:104DB0000200ECE70C58022010B582B01C46EFF35D
:104DC0000583B3B9EFF3108313B9EFF311831BB16C
:104DD0001E4B1B68022B0CD0002918BF00282CD0BA
:104DE000224600F065FC01282AD05CB36FF0010078
:104DF00018E0002918BF002816D0C4B90023019379
:104E000001AA00F007FE012814D1019850B14FF01B
:104E1000E0234FF08052C3F8042DBFF34F8FBFF350
:104E20006F8F002002B010BD6FF00300FAE76FF043
:104E30000300F7E76FF00200F4E76FF00300F1E71B
:104E40000020EFE76FF00200ECE700BF0C580220F3
:104E5000EFF30583A3B910B50446EFF3108313B93C
:104E6000EFF311831BB10B4B1B68022B0BD06CB102
:104E7000204600F041FE204600F054FE002010BD08
:104E80006FF0050070476FF00500F8E76FF0030062
:104E9000F5E700BF0C580220034B0360034B0B6087
:104EA00080231360704700BFB0570220B055022026
:104EB000034B0360034B0B604FF480731360704728
:104EC000545502205451022000F1080343604FF072
:104ED000FF328260C36003610023036070470023D8
:104EE0000361704743684B609A688A6051609960BB
:104EF0000861036801330360704730B40D68B5F191
:104F0000FF3F11D000F108031C465B681A68AA42F3
:104F1000FAD963684B6099608C60616008610368CE
:104F20000133036030BC70470469F2E703694168EC
:104F300082688A60416851605A68824206D00022C5
:104F400002611A68013A1A601868704782685A60EC
:104F5000F5E70346406A18B11B6B1868C0F13800CA
:104F6000704710B5044601F095FFA26BE36B9A42BF
:104F700004D0002401F0B4FF204610BD0124F9E75D
:104F800010B5044601F086FFA36B23B9012401F09C
:104F9000A7FF204610BD0024F9E770B5044615466A
:104FA000866B026C5AB903681BB100200136A663F8
:104FB00070BD806801F018FC0023A360F6E76DB9AE
:104FC00040680EF064F96368226C13446360A26861
:104FD000934219D3236863602846E7E7C0680EF060
:104FE00056F9E368226C51429B1AE36022689342AF
:104FF00002D2A3680B44E360022D01D00020D5E764
:1050000026B1013E0020D1E72846CFE70020CDE7BA
:105010000346026C6AB110B50846D9681144D960DC
:105020009C68A14201D31968D960D9680EF02FF9A4
:1050300010BD704738B5054601F02CFF95F8454086
:1050400064B201E0013C64B2002C0ADD6B6A43B13A
:1050500005F1240001F0C6FA0028F3D001F05CFB52
:10506000F0E7FF2385F8453001F03AFF01F012FF29
:1050700095F8444064B201E0013C64B2002C0ADDC2
:105080002B6943B105F1100001F0ACFA0028F3D010
:1050900001F042FBF0E7FF2385F8443001F020FFE8
:1050A00038BD38B5E0B10D46044601F0F3FE236883
:1050B000E26B216C01FB0230A0600020A063636002
:1050C000013A02FB0133E360FF2384F8443084F8A3
:1050D00045300DBB236973B901F002FF012038BDD3
:1050E0004FF0500372B683F31188BFF36F8FBFF395
:1050F0004F8F62B6FEE704F1100001F073FA00284A
:10510000EAD04FF0E0234FF08052C3F8042DBFF3F4
:105110004F8FBFF36F8FDFE704F11000FFF7D4FE6E
:1051200004F12400FFF7D0FED6E738B51D46049CF5
:105130000B4649B92460E063236401212046FFF750
:10514000B0FF84F84C5038BD2260F4E750B94FF0FE
:10515000500372B683F31188BFF36F8FBFF34F8F85
:1051600062B6FEE710B584B01C4693B10B1E18BFA3
:105170000123002A08BF43F00103ABB94FF05003ED
:1051800072B683F31188BFF36F8FBFF34F8F62B690
:10519000FEE74FF0500372B683F31188BFF36F8FB1
:1051A000BFF34F8F62B6FEE7B1FA81F35B09002AC5
:1051B00018BF43F0010353B94FF0500372B683F3A5
:1051C0001188BFF36F8FBFF34F8F62B6FEE7502396
:1051D0000393039B502B0AD04FF0500372B683F316
:1051E0001188BFF36F8FBFF34F8F62B6FEE7039B4B
:1051F000012384F8463000949DF81830FFF795FF9E
:10520000204604B010BD50B94FF0500372B683F37E
:105210001188BFF36F8FBFF34F8F62B6FEE7F0B513
:1052200083B00C4615460746A1B101FB00F0503093
:1052300001F0CCFF064650B1002380F846300090C4
:105240002B4600F1500221463846FFF76EFF3046EC
:1052500003B0F0BD0846EAE750B94FF0500372B60C
:1052600083F31188BFF36F8FBFF34F8F62B6FEE7F2
:1052700010B582B00C4688420AD24FF0500372B685
:1052800083F31188BFF36F8FBFF34F8F62B6FEE7D2
:1052900002230093134600221146FFF757FF00B187
:1052A000846302B010BD50B94FF0500372B683F35F
:1052B0001188BFF36F8FBFF34F8F62B6FEE710B553
:1052C0000C4688420AD24FF0500372B683F311881D
:1052D000BFF36F8FBFF34F8F62B6FEE7022200214C
:1052E000FFF791FF00B1846310BDF0B585B0019266
:1052F00098B10F461D460446D1B1022D26D1E36B6D
:10530000012B23D04FF0500372B683F31188BFF303
:105310006F8FBFF34F8F62B6FEE74FF0500372B648
:1053200083F31188BFF36F8FBFF34F8F62B6FEE731
:10533000036C002BE1D04FF0500372B683F3118859
:10534000BFF36F8FBFF34F8F62B6FEE701F0F0F946
:10535000064668B9019B002B4AD04FF0500372B645
:1053600083F31188BFF36F8FBFF34F8F62B6FEE7F1
:1053700000263DE02A4639462046FFF70EFE636AC6
:105380007BB948B14FF0E0234FF08052C3F8042DB1
:10539000BFF34F8FBFF36F8F01F0A2FD012005B067
:1053A000F0BD04F1240001F01DF90028F4D04FF005
:1053B000E0234FF08052C3F8042DBFF34F8FBFF3AB
:1053C0006F8FE9E701F08CFD0020E8E702A801F00B
:1053D00051F9012619E0002384F8443021E000232C
:1053E00084F8453023E02046FFF724FE00F076FFE6
:1053F00001F050FDA26BE36B9A42BBD3022DB9D0F2
:10540000019B002BDED0002EE0D001F069FD00F002
:10541000C1FE01F03FFD94F8442052B2B2F1FF3FCB
:10542000D9D094F8452052B2B2F1FF3FD7D001F065
:1054300057FD01A902A801F029F9D8B92046FFF7C4
:1054400090FD0028CFD0019904F1100001F092F8EE
:105450002046FFF7EFFD00F041FF0028C8D14FF0D4
:10546000E0234FF08052C3F8042DBFF34F8FBFF3FA
:105470006F8FBDE72046FFF7DDFD00F02FFF002016
:105480008DE748B108B5002181600160C1600B461D
:105490000A46FFF72AFF08BD704710B502460021F3
:1054A0000120FFF7B0FE0446FFF7EBFF204610BDDA
:1054B00010B582B00B460090002211460120FFF784
:1054C00045FE0446FFF7DDFF204602B010BD38B5AB
:1054D00038B10446856801F025F985420CD00020DA
:1054E00038BD4FF0500372B683F31188BFF36F8F4E
:1054F000BFF34F8F62B6FEE7E368013BE3600BB199
:105500000120EDE71A4619462046FFF7EEFE01207E
:10551000E6E72DE9F843A0B10F4616461C460546BE
:10552000D1B1022C26D1EB6B012B23D04FF05003CD
:1055300072B683F31188BFF36F8FBFF34F8F62B6DC
:10554000FEE74FF0500372B683F31188BFF36F8FFD
:10555000BFF34F8F62B6FEE7036C002BE1D04FF034
:10556000500372B683F31188BFF36F8FBFF34F8F71
:1055700062B6FEE701F094FDEFF311884FF050039F
:1055800072B683F31188BFF36F8FBFF34F8F62B68C
:10559000AA6BEB6B9A4206D3022C04D0002088F34E
:1055A0001188BDE8F88395F845904FFA89F92246AD
:1055B00039462846FFF7F1FCB9F1FF3F06D009F163
:1055C00001035BB285F845300120E8E76B6A0BB94F
:1055D0000120E4E705F1240001F004F818B126B138
:1055E00001203060DBE70120D9E70120D7E778B15F
:1055F00070B50C460546036CABB14FF0500372B664
:1056000083F31188BFF36F8FBFF34F8F62B6FEE74E
:105610004FF0500372B683F31188BFF36F8FBFF35F
:105620004F8F62B6FEE70368FBB101F039FDEFF37F
:1056300011864FF0500372B683F31188BFF36F8F5A
:10564000BFF34F8F62B6AA6BEB6B934228D995F8E4
:1056500045305BB20132AA63B3F1FF3F13D001338F
:105660005BB285F8453001201BE08368002BDCD05D
:105670004FF0500372B683F31188BFF36F8FBFF3FF
:105680004F8F62B6FEE76B6A0BB9012009E005F1A6
:10569000240000F0A7FF38B144B10120206000E0F1
:1056A000002086F3118870BD0120FAE70120F8E799
:1056B000F0B585B00192A0B10F460446E1B101F00A
:1056C00037F8064630BB019B002B64D04FF05003E7
:1056D00072B683F31188BFF36F8FBFF34F8F62B63B
:1056E000FEE74FF0500372B683F31188BFF36F8F5C
:1056F000BFF34F8F62B6FEE7036C002BDFD04FF095
:10570000500372B683F31188BFF36F8FBFF34F8FCF
:1057100062B6FEE700263EE039462046FFF778FCF9
:10572000013DA563236923B901F0DAFB012005B02F
:10573000F0BD04F1100000F055FF0028F4D04FF048
:10574000E0234FF08052C3F8042DBFF34F8FBFF317
:105750006F8FE9E701F0C4FB0020E8E702A800F042
:1057600089FF012621E0002384F8443029E000234A
:1057700084F845302BE02046FFF75CFC00F0AEFDDE
:1057800009E02046FFF756FC00F0A8FD2046FFF791
:10579000F7FB00283FD101F07DFBA56B002DBBD1AD
:1057A000019B002BD6D0002ED8D001F099FB00F041
:1057B000F1FC01F06FFB94F844305BB2B3F1FF3FB2
:1057C000D1D094F845305BB2B3F1FF3FCFD001F0B8
:1057D00087FB01A902A800F059FF0028D1D120467B
:1057E000FFF7CEFB0028C6D0019904F1240000F099
:1057F000C1FE2046FFF71EFC00F070FD0028CAD154
:105800004FF0E0234FF08052C3F8042DBFF34F8FC9
:10581000BFF36F8FBFE7002089E770B584B00191B7
:1058200068B10446036CABB14FF0500372B683F31A
:105830001188BFF36F8FBFF34F8F62B6FEE74FF053
:10584000500372B683F31188BFF36F8FBFF34F8F8E
:1058500062B6FEE700F06CFF054660B9019B6BB1D4
:105860004FF0500372B683F31188BFF36F8FBFF30D
:105870004F8F62B6FEE70026354657E0064655E0F4
:10588000013BA36323683BB123694BB901F028FBBB
:105890000126304604B070BD01F046F8A060F3E781
:1058A00004F1100000F09EFE0028EFD04FF0E0233E
:1058B0004FF08052C3F8042DBFF34F8FBFF36F8FAB
:1058C000E4E756B14FF0500372B683F31188BFF38B
:1058D0006F8FBFF34F8F62B6FEE701F001FBD8E791
:1058E00002A800F0C7FE01252AE0002384F8443016
:1058F00032E0002384F8453034E001F0CBFAA068B0
:1059000000F026FF064601F0EBFA3BE02046FFF7E9
:1059100091FB00F0E3FC09E02046FFF78BFB00F071
:10592000DDFC2046FFF72CFB002842D101F0B2FA43
:10593000A36B002BA4D1019B002BC2D0002DCFD094
:1059400001F0CEFA00F026FC01F0A4FA94F84430FD
:105950005BB2B3F1FF3FC8D094F845305BB2B3F10E
:10596000FF3FC6D001F0BCFA01A902A800F08EFEEC
:105970000028D1D12046FFF703FB0028C6D02368BA
:10598000002BBAD0019904F1240000F0F3FD204669
:10599000FFF750FB00F0A2FC0028C7D14FF0E02336
:1059A0004FF08052C3F8042DBFF34F8FBFF36F8FBA
:1059B000BCE70EB900266CE701F06CFA2046FFF751
:1059C000C8FA0146A06800F05BFF01F089FAF1E730
:1059D00080B170B50C460546866800F0A3FE86428D
:1059E00013D021462846FFF718FF90B1EB6801332A
:1059F000EB600EE04FF0500372B683F31188BFF3F3
:105A00006F8FBFF34F8F62B6FEE7EB680133EB6039
:105A1000012070BD2DE9F843C0B10D469046044603
:105A2000F9B101F03DFBEFF311874FF0500372B66F
:105A300083F31188BFF36F8FBFF34F8F62B6A66BEE
:105A4000EEB9002087F31188BDE8F8834FF05003CA
:105A500072B683F31188BFF36F8FBFF34F8F62B6B7
:105A6000FEE7036C002BDCD04FF0500372B683F3DB
:105A70001188BFF36F8FBFF34F8F62B6FEE794F8C4
:105A800044904FFA89F929462046FFF7C1FA731E60
:105A9000A363B9F1FF3F06D009F101035BB284F8BB
:105AA00044300120CEE723690BB90120CAE704F195
:105AB000100000F097FD30B1B8F1000F05D00120C3
:105AC000C8F80000BEE70120BCE70120BAE70000EB
:105AD0000023072B0CD8074A52F833200AB10133B0
