:020000040800F2
:1000000000000820B5C50008790A00087B0A00082E
:100010007D0A00087F0A0008810A0008000000002D
:100020000000000000000000000000005143000834
:10003000830A000800000000F1430008554400084E
:1000400005C6000805C6000805C6000805C6000864
:1000500005C6000805C6000805C6000805C6000854
:1000600005C6000805C6000805C6000805C6000844
:1000700005C6000805C6000805C6000805C6000834
:1000800005C6000805C6000805C6000805C6000824
:1000900005C6000805C6000805C6000805C6000814
:1000A00005C6000805C6000805C6000805C6000804
:1000B00005C6000805C6000805C6000805C60008F4
:1000C00005C6000805C6000805C6000805C60008E4
:1000D00005C6000805C6000805C6000805C60008D4
:1000E00005C6000805C6000805C6000805C60008C4
:1000F00005C6000805C6000805C6000805C60008B4
:1001000005C6000805C6000805C6000805C60008A3
:1001100005C6000805C6000805C60008850A0008CF
:1001200005C6000805C6000805C6000805C6000883
:1001300005C60008950A0008A50A000805C60008BB
:1001400005C6000805C6000805C6000805C6000863
:1001500005C6000805C6000805C6000805C6000853
:1001600005C6000805C6000805C6000805C6000843
:1001700005C6000805C6000805C600080000000006
:1001800005C6000805C6000805C6000805C6000823
:1001900005C6000805C6000805C6000805C6000813
:1001A00005C6000805C6000805C6000805C6000803
:1001B00005C6000805C6000805C6000805C60008F3
:1001C00005C6000805C600080000000005C60008B6
:1001D00005C6000805C6000805C6000805C60008D3
:1001E00005C6000805C6000805C6000805C60008C3
:0801F00005C6000805C6000861
:1002000010B5054C237833B9044B13B10448AFF350
:1002100000800123237010BDC801002000000000F1
:1002200030D6000808B5034B1BB103490348AFF3B0
:10023000008008BD00000000CC01002030D600087E
:1002400001F0FF01102A2BDB10F0070F08D010F887
:10025000013B013A8B422DD010F0070F42B3F6D18B
:10026000F0B441EA012141EA014122F007047FF0A4
:1002700000070023F0E80256083C85EA010586EAFB
:10028000010685FA47F5A3FA87F586FA47F6A5FA37
:1002900087F68EB9EED1F0BC01F0FF0102F0070243
:1002A00032B110F8013B013A83EA010313B1F8D1EE
:1002B0000020704701387047002D06BF35460338CF
:1002C000073815F0010F07D1013015F4807F02BF08
:1002D000013015F4C03F0130F0BC0138704700BF59
:1002E00053B94AB9002908BF00281CBF4FF0FF319D
:1002F0004FF0FF3000F088B9ADF1080C6DE904CE85
:1003000000F006F8DDF804E0DDE9022304B07047F0
:100310002DE9F047089D8E4604468846002B4AD1B9
:100320008A42174662D9B2FA82F64EB1C6F120036C
:1003300001FA06F820FA03F3B74043EA0808B4408C
:100340004FEA174E1FFA87FCB8FBFEF1230C0EFB99
:10035000118843EA084301FB0CF29A4209D9FB18C1
:1003600001F1FF3080F0EA809A4240F2E7800239E2
:100370003B449A1AA3B2B2FBFEF00EFB102243EAF2
:10038000024300FB0CFC9C4509D9FB1800F1FF322D
:1003900080F0D6809C4540F2D3803B44023840EA4E
:1003A0000140A3EB0C0300211DB1F3400022C5E97D
:1003B0000032BDE8F0878B4205D90DB1C5E90001D7
:1003C00000210846F5E7B3FA83F1002946D17345C9
:1003D00002D3824200F20581841A6EEB03020120EF
:1003E0009046002DE5D0C5E90048E2E7002A00F07C
:1003F0009080B2FA82F6002E40F0A4808A1A030C94
:100400004FEA174E80B2BCB20121B2FBFEFC0EFBDC
:100410001C2243EA024304FB0CF29A4207D9FB1860
:100420000CF1FF3802D29A4200F2E080C4469B1AD7
:10043000B3FBFEF20EFB123340EA034302FB04F46B
:100440009C4207D9FB1802F1FF3002D29C4200F215
:10045000CA8002461B1B42EA0C40A5E7C1F12006F8
:100460008B4022FA06F71F430EFA01F420FA06F336
:100470002EFA06FE4FEA1749234300FA01F81FFA45
:1004800087FCBEFBF9F01C0C09FB10EE44EA0E449D
:1004900000FB0CFEA64502FA01F209D93C1900F155
:1004A000FF3A80F09C80A64540F2998002383C4497
:1004B000A4EB0E041FFA83FEB4FBF9F309FB13440B
:1004C0004EEA044403FB0CFCA44508D93C1903F193
:1004D000FF3E80F08280A4457FD9023B3C4443EA42
:1004E0000040A4EB0C04A0FB02EC64457346E1461B
:1004F00062D35FD05DB1B8EB030264EB090404FA88
:1005000006F622FA01F31E43CC40C5E9006400213F
:100510004FE7B1FBF2FC010C41EA0E4180B240EA28
:1005200001423B4638463C46B846BE462026B1FB13
:10053000F7F1A2EB080241EA0C4166E7014618E731
:1005400010462CE7C6F120022EFA02F3B740B14064
:1005500020FA02F24FEA174E0A43B3FBFEF8BCB290
:100560000EFB1833110C41EA034108FB04F9B040BB
:1005700089454FEA104380B23ED9791808F1FF3C13
:1005800001D289451FD8A1EB0901B1FBFEF909FB96
:1005900004F80EFB191192B242EA0142424529D2F7
:1005A000BA1809F1FF31C4D24245C2D2A9F1020101
:1005B0003A44BEE7F0459DD2BEEB02036CEB070C5C
:1005C0000138E14696E7A7EB09094944A8F1020C76
:1005D000B1FBFEF909FB04F8DBE773467FE7504601
:1005E00066E70846FDE63B44023A33E7ACF1020C0D
:1005F0003B441CE749469CE7A1EB0901C446B1FB1B
:10060000FEF909FB04F8C4E7704700BF08B5802174
:10061000034801F00FFC4FF4FA7003F0BFFDF6E75A
:100620000004024010B50446034B0360034B036013
:100630000BF0B6FF204610BDE8F70008D4F700081D
:1006400010B50446064B0360064B03600BF0A8FF91
:100650004FF4227120460BF0D6FF204610BD00BF9C
:10066000E8F70008D4F7000808B50448044B036015
:10067000044B03600BF094FF08BD00BFE8010020AD
:10068000E8F70008D4F7000808B502480BF068FF47
:1006900008BD00BFE80100202DE9F04182B004460A
:1006A00013464FF400720BF03FFF25460E4B45F802
:1006B0002C3B5C263246002128460CF0CCF904F194
:1006C00088074FF400784246002138460CF0C3F901
:1006D000CDF800803B463246294620460BF03AFFD3
:1006E000204602B0BDE8F081D4F7000810B5044CF4
:1006F000182204492046FFF7CFFF034B236010BDAB
:10070000E801002048D60008E8F7000808B5FFF720
:10071000EDFF08BD08B5FFF7A7FF08BD08B503F05A
:100720009FF9012003F03AFDFBE7000008B5044AF9
:100730000021044803F09EFC034B186008BD00BF75
:10074000F4F700081D07000870040020F0B58DB014
:1007500000240794089409940A940B94364B1A6B5E
:1007600042F004021A631A6B02F004020192019A29
:100770001A6B42F080021A631A6B02F08002029236
:10078000029A1A6B42F001021A631A6B02F001021C
:100790000392039A1A6B42F002021A631A6B02F078
:1007A00002020492049A1A6B42F008021A631A6B4E
:1007B00002F008020592059A1A6B42F040021A6391
:1007C0001B6B03F040030693069B1C4F224644F22A
:1007D0008101384601F028FB194D22464021284668
:1007E00001F022FB4FF4005307934FF48813089352
:1007F000099407A9134801F015FA44F281030793FD
:100800000126089609940A9407A9384601F00AFAC5
:1008100040230793089609940A9407A9284601F0F3
:1008200001FA802307930894099407A9284601F048
:10083000F9F90DB0F0BD00BF0038024000040240DD
:10084000001802400008024010B584B00024009453
:1008500001940294039400F0AFFB01238DF8003063
:100860008DF8014001941F228DF8082087228DF811
:1008700009208DF80A408DF80B408DF80C308DF86A
:100880000D308DF80E408DF80F40684600F0B2FB39
:10089000042000F09FFB04B010BD000008B5026802
:1008A000034B9A4200D008BD00F0FEFAFBE700BF00
:1008B0000014004072B6FEE700B595B03422002166
:1008C00007A80CF0C8F80023029303930493059340
:1008D000069301F055FB234B1A6C42F080521A64C8
:1008E0001B6C03F080530093009B1F4B1A6842F46B
:1008F00040421A601B6803F440430193019B0123AB
:1009000007934FF4A023089302230D934FF4800222
:100910000E9204220F92D822109211930922129261
:10092000139307A801F072FBB0B901F031FBA8B92D
:100930000F23029302230393002304934FF4A05345
:1009400005934FF480530693072102A801F0EEFDB2
:1009500030B915B05DF804FBFFF7ACFFFFF7AAFF55
:10096000FFF7A8FF003802400070004008B5FFF70D
:100970006BFF00F08EFAFFF79FFFFFF7E7FE00F036
:1009800003F900F063F903F033FBFFF7CFFEFFF745
:100990007BFE03F04BFBFEE700B583B00D4B1A6CFA
:1009A00042F080521A641A6C02F080520092009A4F
:1009B0005A6C42F480425A645B6C03F480430193A6
:1009C000019B00220F216FF0010000F0D7FA03B065
:1009D0005DF804FB0038024030B589B00446214B75
:1009E0001A6C42F020021A641B6C03F0200301937E
:1009F000019B02A903A801F075FE069BCBB901F08B
:100A000051FE0346184AA2FB03239B0C013B1748E7
:100A1000174A026040F2E732C2604360002303617C
:100A20008360836102F012FB054630B1284609B0AD
:100A300030BD01F037FE4300E4E70C4802F072F9E4
:100A400005460028F2D1372000F0A8FA0F2C01D972
:100A50000125EBE700222146372000F08FFA054BF5
:100A60001C60E3E70038024083DE1B43740400206F
:100A70000014004008000020FEE7FEE7FEE7FEE766
:100A8000FEE7704708B5024802F098F908BD00BFBC
:100A90007404002008B5024800F044FF08BD00BF00
:100AA000D40A002008B5024800F03CFF08BD00BF92
:100AB000D40A002001207047024B16221A604FF022
:100AC000FF307047CCCE002008B54FF0FF31FFF764
:100AD000F3FFFEE770B50C461646002506E0AFF3BF
:100AE0000080214601F8010B01350C46B542F6DBCA
:100AF000304670BD70B50C461646002504E014F86B
:100B0000010BAFF300800135B542F8DB304670BD14
:100B10004FF0FF3070474FF400534B600020704798
:100B2000012070470020704710B403460C4A0D495D
:100B30000D48006850B10C4800680344521A9342B3
:100B400008D8094A13605DF8044B70470648074C03
:100B50000460F0E7064B0C221A604FF0FF30F2E71A
:100B60000000082000040000C004002018D000206D
:100B7000CCCE0020034AD2F8883043F47003C2F888
:100B80008830704700ED00E008B50B480B4B036060
:100B90004FF4E133436000238360C36003610C22A0
:100BA00042618361C3610362436202F05AFD00B98E
:100BB00008BDFFF77FFEFBE7C404002000480040AB
:100BC00010B5ACB0044600212791289129912A91B3
:100BD0002B91902203A80BF03EFF2268184B9A42FB
:100BE00001D02CB010BD4FF48073039303A801F023
:100BF00097FD10BB134B1A6C42F480221A641A6CD6
:100C000002F480220192019A1A6B42F008021A63E0
:100C10001B6B03F008030293029B4FF4407327936E
:100C2000022328930023299303232A9307232B933A
:100C300027A9054800F0F6FFD3E7FFF73BFED9E709
:100C40000048004000380240000C024008B50C4843
:100C50004FF0A0430360062303710222C2710023F8
:100C60008371427201228272C37203738273C373EF
:100C700001F0E9F800B908BDFFF71CFEFBE700BF73
:100C80004C05002070B5ACB0044600212791289196
:100C900029912A912B91902203A80BF0DCFE236866
:100CA000B3F1A04F01D02CB070BD4FF400130393EB
:100CB00003A801F035FD002835D11C4C236B43F00F
:100CC00001032363236B03F001030093009B4FF4A4
:100CD000E8532793022328930025299503232A9379
:100CE0000A232B93124E27A9304600F09BFF4FF4A6
:100CF000007327932895299527A9304600F092FF85
:100D0000636B43F080036363636B03F080030193C1
:100D1000019B636C43F480436364636C03F480431E
:100D20000293029BBFE7FFF7C5FDC6E7003802400C
:100D30000000024088B1CA6892B18A689AB10A6913
:100D4000A2B10A6882604A68C260CA6842618A6861
:100D500002610A698261002070474FF0FF307047DE
:100D60004FF0FF3070474FF0FF3070474FF0FF30CB
:100D7000704770B582B00023019344680CBB0546F0
:100D8000836803B1984720232B60002602E06FF0B0
:100D9000040601341F2C0DD86B6901AA12212046CC
:100DA00098470028F3DB019B03F01F03A342F0D117
:100DB0002C6000262B681F2B07D81EB901236B60FF
:100DC00000E00026304602B070BD6FF00206F9E781
:100DD00010B582B0044600230193436901AA0121A2
:100DE00000689847002839DB636901AA012120685F
:100DF0009847002835DB019B13F0040F34D063695A
:100E000001AA002120689847002830DB019B13F4D9
:100E1000805F0CD103F40452B2F5045F2AD013F4BE
:100E2000005F29D113F4807F28D004201DE063697E
:100E300001AA1F2120689847002821DB019B13F499
:100E4000805F20D003F01C03182B1ED0082B1ED06F
:100E5000142B01D0052008E0042006E06FF0040008
:100E600003E06FF0040000E0012002B010BD6FF05D
:100E70000400FAE70220F8E70320F6E70520F4E78C
:100E80006FF00400F1E70620EFE70220EDE7032012
:100E9000EBE708B5032000F05FF80F20FFF79CFD9B
:100EA000FFF77AFD002008BD034A1168034B1B7849
:100EB0000B441360704700BF2C0A00200400002080
:100EC000014B1868704700BF2C0A002038B5044653
:100ED000FFF7F6FF0546B4F1FF3F02D0044B1B7845
:100EE0001C44FFF7EDFF401BA042FAD338BD00BF02
:100EF00004000020002804DB0901C9B2044B195486
:100F0000704700F00F000901C9B2024B1954704735
:100F100000E400E014ED00E000B500F00700C0F1CF
:100F2000070CBCF1040F28BF4FF0040C031D062B67
:100F30000FD9C31E4FF0FF3E0EFA0CF021EA00015C
:100F400099400EFA03FE22EA0E0241EA02005DF821
:100F500004FB0023EEE700000649CB6823F4E063BE
:100F60001B041B0C000200F4E0600343024A1A4316
:100F7000CA60704700ED00E00000FA0510B50446B5
:100F8000054BD868C0F30220FFF7C6FF0146204694
:100F9000FFF7B0FF10BD00BF00ED00E0002807DB49
:100FA00000F01F02400901239340024A42F820301A
:100FB000704700BF00E100E0BFF35F8F044B5A6A47
:100FC00022F480325A620022C3F89420704700BF96
:100FD00000ED00E040F00100054BC3F894005A6AB0
:100FE00042F480325A62BFF34F8FBFF36F8F704766
:100FF00000ED00E04378144AC2F89830D2F8A030EF
:1010000023F00103C2F8A0304368C2F89C30017B92
:10101000C37A1B0643EA0173817A43EAC143417BE9
:1010200043EA8143817B43EA4143C17B43EA014375
:10103000417A43EA0123017A43EA410301780B43F1
:10104000C2F8A030704700BF00ED00E02DE9F0418C
:1010500082B0054600230193D0F8688008F112039E
:1010600050F82340C66E012714E001A802F09AFF51
:10107000019B13B12362A36011E000270FE06B69AD
:1010800043F48043636013E003F1120255F82240F9
:10109000013E9846BEB1B7B1236A002BE5D0002FC0
:1010A000F8D0AB6D002BEAD16A69134B1343636030
:1010B000236843F00043236008F10103032BE3D9C5
:1010C000A8F10303E0E7EB6EB34211D008F103038C
:1010D00003F00303BFF35F8F2A6903EB830302EB83
:1010E000C3022B6803F580539A60C5F86880EE66EA
:1010F00002B0BDE8F08100BF004000805079137954
:1011000043EA002307480B50D07893781B0443EA46
:101110000063507843EA002312781343024A8B504D
:10112000704700BF408002404480024030B400223B
:1011300008E0C468DC6051F80C3043F4400341F827
:101140000C300132032A1FD8C16802EB82034FEA38
:10115000C30C01EBC303002441F80C405C609C60AD
:10116000DC60941D40F8243051F80C4044F48014A5
:1011700041F80C40022ADCD8541C04EB8404C568F6
:1011800005EBC404DC60D6E700238362C268036811
:1011900003F580531A6130BC704710B4002202E09E
:1011A0000169D9600132032A28D8046902EB82035D
:1011B0004FEAC30C04EBC303002144F80C10596040
:1011C0009960D960196259624FF0004144F80C10DF
:1011D000416941F480415960596821F000415960EA
:1011E00002F1120140F82130022AD9D80469511CB9
:1011F00001EB810104EBC104DC60D3E70023C3658C
:1012000003668366C36683650269036803F58053DA
:10121000DA605DF8044B7047F0B5856A00EB850332
:101220009B698C681E68002EC0F2B3802E1D00EBF7
:101230008606F669002E40F0AE8026689E605E68E5
:101240006FF30C0667683E435E600E6816F0010F90
:1012500005D01E6826F440064F693E431E600E68A6
:1012600016F0200F05D01E6826F040660F693E4339
:101270001E60096811F0040F03D0196841F0800165
:101280001960196841F0805119602F4600264FF00F
:10129000010E27E0196821F0804119602EE000EB73
:1012A0008C039B691968002930DB0CF1040100EB09
:1012B0008101C96951BB196821F0805119600EF193
:1012C000010EA4682168996059686FF30C01676882
:1012D000394359600136BFF35F8F196841F000410F
:1012E00019606746A16851B3196821F0005119606F
:1012F000002ACFD0196841F08041196007F1010C34
:10130000BCF1030FCBD9A7F1030CC8E700EB8503B1
:101310009969002204E000EB8301896901321D46CE
:1013200072450AD2BFF35F8F0B6823F000430B6056
:101330006B1C032BEFD9EB1EEDE70220F0BD1AB3B7
:101340001A6842F080421A601A6842F000521A602D
:1013500000EB8505AA69BFF35F8F136843F0004374
:101360001360C26B3B1D00EB8303DA618762EFF30E
:101370001082012383F31088036C33440133036428
:1013800082F310880020D9E71A6822F080421A60A0
:10139000DAE70220D2E70220D0E7000070B5054668
:1013A0000C46026813683C491940A37B5B06207C0D
:1013B000002861D14FF400000343607C00285DD118
:1013C0004FF480000343A0680343E07F43EA0043F7
:1013D00060690343A07F002852D14FF400500343BB
:1013E000207F43EA0033A0690343207943EA802346
:1013F00094F82000002845D14FF400700343E07BAF
:1014000043EAC013606A034394F8280043EA0013D8
:101410000B4313602B681E680120FFF757FD2B68F4
:101420001E6029688A6922F0BE021204120CA36CA5
:101430001B0494F84C0038BB80200343206D034309
:1014400094F85500012821D00020034394F8560059
:1014500001281DD00020034394F85400012819D01E
:101460000020034313438B612B689C690120FFF725
:101470002DFD2B689C6170BD00209DE70020A1E739
:101480000020ACE70020B9E70020D6E70820DCE721
:101490000420E0E70220E4E70F8120FD70B5054657
:1014A0000C46026802F580539B692B491940237B47
:1014B000002B4DD14FF08063607B43EA4063607F37
:1014C000002847D14FF480100343A07B43EA4053E8
:1014D00060690343207F43EAC013A07F43EA80137F
:1014E000206A034394F8240043EA80030B4302F587
:1014F000805293612B6803F580539E690120FFF7AA
:10150000E5FC2B6803F580539E612279A36843EACA
:101510004263A26913432269134394F8252043EAE6
:10152000C213A26A43EA8203226813432A6843F47F
:10153000000302F5805213602B6803F580531C688A
:101540000120FFF7C3FC2B6803F580531C6070BDBE
:101550000023B1E70020B7E7233FDEF870B5A4B061
:10156000064601258DF83C508DF83D5000240D9421
:101570008DF84B408DF84A508DF848408DF83A5020
:101580008DF830508DF84C408DF83B4014948DF818
:1015900054401D948DF878401F948DF882408DF84A
:1015A00080404FF4804310934FF4006311938DF803
:1015B00081400BA9FFF7F2FE8DF80C508DF80D500D
:1015C0008DF81D508DF80E5005948DF81C408DF847
:1015D0001E4008948DF824508DF804504FF4803349
:1015E00002934FF4800306934FF4005304938DF855
:1015F00025500A94009469463046FFF74FFF24B007
:1016000070BD10B582B0044600230193036803F552
:1016100080539A6942F480129A61036803F58053FB
:101620009B6901930120FFF751FC2368019A03F5A0
:1016300080539A6102B010BD002868D030B583B0E5
:101640000446D0F88430002B32D0324B5A6C42F42E
:1016500080425A645B6C03F480430193019B2E4BE0
:101660005A6822F400025A605A68A1680A435A6014
:101670005B68236803F580531A6842F001021A6020
:10168000FFF71EFC0546236803F580531B6813F023
:10169000010F13D0FFF714FC401BB0F5FA7FF2D90D
:1016A0000423C4F88830E023C4F8843001202CE0FF
:1016B0002023C0F8843002F0E9FAC6E72046FFF79D
:1016C0004DFF2046FFF732FD2046FFF766FD6268BA
:1016D00000212046FFF712FD2268D36B43F402730A
:1016E000D3632268D2F80C110C4B0B43C2F80C31B7
:1016F0002268D2F8103143F40313C2F810310020ED
:10170000C4F888001023C4F8843003B030BD012031
:10171000704700BF003802400038014060000200FE
:10172000D0F88430102B01D00120704770B50446EA
:101730002023C0F88430012585650423C366FFF7A4
:1017400085FC23681E682846FFF7C0FB23681E60DF
:10175000236803F580539A6942F400529A61236822
:1017600003F580539A6942F002029A612046FFF71E
:1017700048FF2268136843F00803136023681E685B
:101780002846FFF7A3FB23681E602268136843F016
:1017900004031360236803F58053D969034A0A439D
:1017A000DA614023C4F88430002070BDC1A001007C
:1017B00038B5D0F88430402B01D0012038BD044624
:1017C0002023C0F88430036803F58053D9691F4A89
:1017D0000A40DA61036803F580539A6922F40052E3
:1017E0009A61036803F580539A6922F002029A61B4
:1017F0000268136823F00403136003681D68012066
:10180000FFF764FB23681D602046FFF7FAFE22689D
:10181000136823F00803136023681D680120FFF795
:1018200055FB23681D60002308E003F1120254F801
:1018300022104A6842F000424A600133032BF4D977
:101840000020A0651023C4F88430B7E73E5FFEFF98
:10185000F8B5044631B11546D4F88430402B09D090
:101860000120F8BDD0F8883043F00103C0F888307B
:101870000120F6E700222046FFF7CEFC002835D1F4
:10188000BFF34F8FA36A9A1D54F822605A1CA262BC
:10189000032A01D9033BA362A26A2368063254F8E3
:1018A000222003F580535A60FFF70AFB074633688E
:1018B000002B30DA236803F58052526912F4005F7E
:1018C0001CD1B5F1FF3FF2D0FFF7FAFAC01BA842D6
:1018D00001D8002DEBD1D4F8883043F00403C4F8CC
:1018E00088304FF0405333600120BAE7D4F8883095
:1018F00043F00203C4F888300120B2E7D4F888200E
:1019000042F00802C4F8882003F580535B69C4F8EC
:101910008C300120A5E70020A3E77047704770478F
:10192000704770472DE9F04104460368D3F83880CA
:1019300003F580525569D669364A576915F0400F4C
:1019400002D016F0400F34D115F0010F02D016F07E
:10195000010F35D115F4004F23D016F4004F20D0DD
:10196000D4F8883043F00803C4F8883015F4005FD9
:1019700030D0236803F580535A6922F07F4222F465
:10198000010222F45F4222F0FF02C4F88C20DA69DF
:1019900022F4C032DA61E023C4F884302046FFF735
:1019A000BEFF18F0080F20D117F4002F2AD1BDE890
:1019B000F08103F58053184A5A61FFF7AFFFC3E780
:1019C000236803F580534FF001125A612046FFF758
:1019D000A4FFBFE7236803F580535A6948F280618A
:1019E0000A40C4F88C205961D8E72368DB6A03F009
:1019F0006003C4F894302046FFF792FF0023C4F838
:101A00009430D1E7034B4FF400225A612046FFF790
:101A100088FFCCE7003C014040000100F8B50546D6
:101A20001E460068036903F01C03C90289B219430A
:101A3000940104F4F8640C4344F001040461FFF7DA
:101A40003FFA074601E02B681C6914F0010F07D02C
:101A5000FFF736FAC01BB0F5803FF4D3012004E055
:101A60002B685B699BB233600020F8BD70B50546FA
:101A70000668306900F01C00C90289B20143940174
:101A800004F4F8640C4344F003049BB273612B68C4
:101A90001C61FFF715FA064601E02B681C6914F07B
:101AA000010F07D0FFF70CFA801BB0F5803FF4D38D
:101AB000012000E0002070BD002979D00268126882
:101AC000C2F3001281F828200268126802F0600256
:101AD0004A620268126812F4007F0CBF01220022E1
:101AE00081F8202002681268C2F30042CA770268B7
:101AF000126812F4005F0CBF012200228A7702688C
:101B00001268C2F300320A770268126802F40062B7
:101B10008A610268126802F480424A6102681268AF
:101B200012F4800F0CBF012200224A74026812686E
:101B300012F4000F0CBF012200220A74026812681E
:101B4000C2F3C012CA730268126802F460228A608B
:101B500002681268C2F380220A7102681268C2F336
:101B600040628A7302689269C2F3400281F854208D
:101B70000268926912F0800F0CBF0122002281F8E6
:101B80004C200268926902F030020A65026892698C
:101B9000120C8A6402689269C2F3800281F85620AE
:101BA00002689269C2F3C00281F855200020704794
:101BB0000120704751B108B5D0F88430102B01D006
:101BC000012008BDFFF7EAFB0020FAE7012070477B
:101BD00038B5054603681C6924F01C0400F05CFD60
:101BE0000C4B984204D844F008042B681C6138BDA3
:101BF000094B984202D244F00C04F6E7074B984296
:101C0000F3D9074B984202D844F00404EDE744F0BE
:101C10001004EAE7BF0E160200879303FFE0F50504
:101C20007FD1F00800230F2B00F2F48070B582B052
:101C300066E085684FEA430E032404FA0EF425EAB1
:101C40000405CC6804FA0EF42C438460446824EA4A
:101C500002044A68C2F300129A40224342605DE0E7
:101C6000DC08083450F8242003F00705AD004FF0DD
:101C70000F0E0EFA05FE22EA0E0E0A69AA4042EA8B
:101C80000E0240F824205DE0092200E0002202FA62
:101C90000EF22A430234604D45F824205F4A9468CE
:101CA0006FEA0C0224EA0C054E6816F4801F01D07E
:101CB0004CEA0405594CA560E46802EA04054E6844
:101CC00016F4001F01D04CEA0405544CE56064682A
:101CD00002EA04054E6816F4003F01D04CEA040500
:101CE0004E4C6560246822404D6815F4803F01D059
:101CF0004CEA0402494C226001330F2B00F2888029
:101D000001229A400C6804EA020C32EA0404F3D17E
:101D10004C6804F00304013C012C8AD94A6802F0A3
:101D20000302032A09D0C4685D000322AA4024EA02
:101D300002048A68AA402243C2604A6802F0030291
:101D4000022A8DD004684FEA430E032202FA0EF2F3
:101D500024EA02044A6802F0030202FA0EF2224365
:101D600002604A6812F4403FC6D02D4A546C44F4D5
:101D700080445464526C02F480420192019A9C089F
:101D8000A51C254A52F8255003F0030E4FEA8E0E8B
:101D90000F2202FA0EF225EA0205224A90423FF48F
:101DA00075AF02F58062904222D002F580629042C7
:101DB00020D002F5806290421ED002F580629042EF
:101DC0001CD002F5806290421AD002F580629042E7
:101DD00018D002F58062904216D002F580629042DF
:101DE00014D002F5806290423FF44EAF0A224EE7D3
:101DF00001224CE702224AE7032248E7042246E791
:101E0000052244E7062242E7072240E708223EE790
:101E100002B070BD704700BF00380140003C014077
:101E200000380240000002400AB181617047090495
:101E300081617047436901EA030221EA030141EA33
:101E400002418161704730B583B0002800F0828084
:101E50000446056890F89534C3B1032384F895349B
:101E6000B5F1A04F17D0206801F09AFC237C8DF8C3
:101E70000030231D0ECB206801F050FC70B102230E
:101E800084F895340125284603B030BD80F8943499
:101E9000FEF7F8FEE1E70023A371E4E700212068E4
:101EA00001F0ACFD024608B9034617E0022384F8AE
:101EB00095340125E7E703EBC30104EB8101012021
:101EC00048750B75CB8500200876C861086203EB66
:101ED000C30104EB810148620133DBB220799842EF
:101EE000E9D816E002EBC20304EB8303002183F878
:101EF000551283F8542283F85812C3F85C12C3F8C1
:101F0000601202EBC20304EB8303C3F864120132D4
:101F1000D2B29042E6D8237C8DF80030231D0ECB40
:101F2000206801F093FC054658B90023637401232F
:101F300084F89534237B012B08D0206801F04CFDF8
:101F4000A1E7022384F8953401259CE7204600F0A0
:101F500003F8F2E7012596E7034602680121C0F87D
:101F6000D814002083F8CC04936943F00063936194
:101F7000516D024B0B435365704700BF03000010C7
:101F8000024A136843F48073136070470070004086
:101F900010B582B01B4B1A6C42F080521A641B6C55
:101FA00003F080530193019B174A136843F4803375
:101FB0001360FEF785FF0446134B5B6813F4803F04
:101FC00008D1FEF77DFF001BB0F57A7FF4D903201E
:101FD00002B010BD0C4A136843F400331360FEF7DF
:101FE0006FFF0446084B5B6813F4003F07D1FEF710
:101FF00067FF001BB0F57A7FF4D90320E8E70020E3
:10200000E6E700BF0038024000700040002800F002
:10201000068270B582B00446036813F0010F29D020
:10202000954B9B6803F00C03042B1AD0924B9B68D2
:1020300003F00C03082B0FD06368B3F5803F40D04A
:10204000002B54D18C4B1A6822F480321A601A6823
:1020500022F480221A6039E0874B5B6813F4800F0A
:10206000EAD0854B1B6813F4003F03D06368002B54
:1020700000F0D781236813F0020F74D07E4B9B6869
:1020800013F00C0F5ED07C4B9B6803F00C03082B05
:1020900053D0E368002B00F08980774A136843F03F
:1020A00001031360FEF70CFF0546734B1B6813F02A
:1020B000020F72D1FEF704FF401B0228F5D903205E
:1020C000B4E16D4A136843F48033136063682BB343
:1020D000FEF7F6FE0546684B1B6813F4003FC9D1B6
:1020E000FEF7EEFE401B6428F5D903209EE1B3F510
:1020F000A02F09D0604B1A6822F480321A601A6847
:1021000022F480221A60E1E75B4B1A6842F48022D5
:102110001A601A6842F480321A60D7E7FEF7D0FEE0
:102120000546554B1B6813F4003FA3D0FEF7C8FECD
:10213000401B6428F5D9032078E14F4B5B6813F40A
:10214000800FA6D14C4B1B6813F0020F03D0E3683D
:10215000012B40F06881484A136823F0F803216995
:1021600043EAC1031360236813F0080F46D0636984
:1021700083B3414A536F43F001035367FEF7A0FE58
:1021800005463D4B5B6F13F0020F37D1FEF798FE0B
:10219000401B0228F5D9032048E1374A136823F091
:1021A000F803216943EAC1031360DCE7324A13688C
:1021B00023F001031360FEF783FE05462E4B1B68D8
:1021C00013F0020FCFD0FEF77BFE401B0228F5D99B
:1021D00003202BE1284A536F23F001035367FEF7D6
:1021E0006FFE0546244B5B6F13F0020F06D0FEF71F
:1021F00067FE401B0228F5D9032017E1236813F07E
:10220000040F7DD01C4B1B6C13F0805F1ED11A4B4A
:102210001A6C42F080521A641B6C03F080530193D5
:10222000019B0125154B1B6813F4807F10D0A36818
:10223000012B25D0002B3BD10F4B1A6F22F001024E
:102240001A671A6F22F004021A671EE00025E9E7F8
:102250000A4A136843F480731360FEF731FE0646A2
:10226000064B1B6813F4807FE1D1FEF729FE801B2B
:102270006428F5D90320D9E00038024000700040FE
:10228000724A136F43F001031367A36833B3FEF779
:1022900017FE06466D4B1B6F13F0020F2FD1FEF792
:1022A0000FFE801B41F288339842F3D90320BDE032
:1022B000052B09D0654B1A6F22F001021A671A6FBD
:1022C00022F004021A67E0E7604B1A6F42F0040242
:1022D0001A671A6F42F001021A67D6E7FEF7F0FD9F
:1022E00006465A4B1B6F13F0020F08D0FEF7E8FDAD
:1022F000801B41F288339842F3D9032096E0FDB960
:10230000A369002B00F09180504A926802F00C0201
:10231000082A59D0022B19D04C4A136823F0807335
:102320001360FEF7CDFD0446484B1B6813F0007F99
:1023300048D0FEF7C5FD001B0228F5D9032075E043
:10234000424A136C23F080531364D9E73F4A136861
:1023500023F080731360FEF7B3FD05463B4B1B680B
:1023600013F0007F06D0FEF7ABFD401B0228F5D925
:1023700003205BE0E369226A1343626A43EA821343
:10238000A26A5208013A43EA0243E26A43EA02635C
:10239000226B43EA02732D4A5360136843F0807343
:1023A0001360FEF78DFD0446284B1B6813F0007F79
:1023B00006D1FEF785FD001B0228F5D9032035E084
:1023C000002033E0002031E0204A5268012B2FD05A
:1023D00002F48003E1698B422CD102F03F03216AB1
:1023E0008B4229D1616A47F6C0731340B3EB811F5A
:1023F00024D102F44031A36A5B08013BB1EB034FE7
:102400001ED102F07063E16AB3EB016F1AD102F0E2
:10241000E042236BB2EB037F16D1002006E00120DF
:102420007047012002E0012000E0002002B070BDF2
:102430000120FBE70120F9E70120F7E70120F5E79C
:102440000120F3E70120F1E70120EFE70038024027
:1024500008B5334B9B6803F00C03042B5BD0082BAF
:102460005BD12F4B5A6802F03F025B6813F4800F78
:102470002CD02B4B5868C0F388104FEA401CBCEBA3
:10248000000C6EEB0E0E4FEA8E1343EA9C634FEA8C
:102490008C11B1EB0C0163EB0E03DB0043EA5173CB
:1024A000C90011EB000C43F10003590200234FEA6D
:1024B0004C2041EADC51FDF713FF194B5B68C3F375
:1024C000014301335B00B0FBF3F008BD144B5868C7
:1024D000C0F388104FEA401CBCEB000C6EEB0E0EF4
:1024E0004FEA8E1343EA9C634FEA8C11B1EB0C0167
:1024F00063EB0E03DB0043EA5173C90011EB000CE0
:1025000043F10003990200234FEA8C2041EA9C51D9
:10251000FDF7E6FED1E70348D7E70348D5E700BF5C
:102520000038024000127A000024F400002800F075
:10253000A08070B50D460446524B1B6803F00F0394
:102540008B420BD24F4A136823F00F030B431360E7
:10255000136803F00F038B4240F08D80236813F063
:10256000020F17D013F0040F04D0474A936843F4C6
:10257000E0539360236813F0080F04D0424A936835
:1025800043F460439360404A936823F0F003A168EA
:102590000B439360236813F0010F31D06368012B64
:1025A00020D0022B25D0384A126812F0020F64D0D6
:1025B00035498A6822F0030213438B60FEF780FCE2
:1025C0000646314B9B6803F00C036268B3EB820F45
:1025D00016D0FEF775FC801B41F288339842F0D983
:1025E000032045E0284A126812F4003FE0D10120A0
:1025F0003EE0254A126812F0007FD9D1012037E071
:10260000204B1B6803F00F03AB420AD91D4A136825
:1026100023F00F032B431360136803F00F03AB4247
:102620002DD1236813F0040F06D0174A936823F4C2
:10263000E053E1680B439360236813F0080F07D061
:10264000114A936823F46043216943EAC10393600C
:10265000FFF7FEFE0C4B9B68C3F303130B4AD35CDE
:10266000D8400B4B18600B4B1868FEF7B5F90020EB
:1026700070BD012070470120FAE70120F8E7012032
:10268000F6E700BF003C02400038024020F8000896
:102690000000002008000020014B1868704700BFB0
:1026A0000000002008B5FFF7F7FF044B9B68C3F359
:1026B0008223034AD35CD84008BD00BF00380240E3
:1026C00018F8000808B5FFF7E7FF044B9B68C3F351
:1026D0004233034AD35CD84008BD00BF00380240F3
:1026E00018F800080F2303600B4B9A6802F00302EE
:1026F00042609A6802F0F00282609A6802F4E05246
:10270000C2609B68DB0803F4E0530361034B1B6862
:1027100003F00F030B60704700380240003C02409A
:10272000F0B583B00446066816F001060DD0B54B2F
:102730009A6822F400029A609A68416B0A439A6090
:10274000436B002B00F067810026256815F40025F7
:1027500011D0AC4AD2F88C3023F44013E16B0B4318
:10276000C2F88C30E36BB3F5801F00F05681002B6C
:1027700000F055810025236813F4801F0FD0A14A73
:10278000D2F88C3023F44003216C0B43C2F88C3018
:10279000236CB3F5800F00F0448103B90125236851
:1027A00013F0807F00D0012613F0200F40F03B8112
:1027B000236813F0100F0CD0924BD3F88C2022F02A
:1027C0008072C3F88C20D3F88C20A16B0A43C3F825
:1027D0008C20236813F4804F08D08A4AD2F89030B6
:1027E00023F44033616E0B43C2F89030236813F436
:1027F000004F08D0834AD2F8903023F44023A16ED2
:102800000B43C2F89030236813F4803F08D07D4A10
:10281000D2F8903023F44013E16E0B43C2F89030AD
:10282000236813F4003F08D0764AD2F8903023F49E
:102830004003216F0B43C2F89030236813F0400F20
:1028400008D0704AD2F8903023F00303616C0B4338
:10285000C2F89030236813F0800F08D0694AD2F88C
:10286000903023F00C03A16C0B43C2F89030236826
:1028700013F4807F08D0634AD2F8903023F03003FD
:10288000E16C0B43C2F89030236813F4007F08D04A
:102890005C4AD2F8903023F0C003216D0B43C2F89C
:1028A0009030236813F4806F08D0564AD2F89030E5
:1028B00023F44073616D0B43C2F89030236813F426
:1028C000006F08D04F4AD2F8903023F44063A16DD6
:1028D0000B43C2F89030236813F4805F08D0494A54
:1028E000D2F8903023F44053E16D0B43C2F890309E
:1028F000236813F4005F08D0424AD2F8903023F4E2
:102900004043216E0B43C2F89030236813F4800FCC
:1029100008D03C4AD2F8903023F08063A16F0B437B
:10292000C2F89030236813F4001F0DD0354AD2F856
:10293000903023F00063E16F0B43C2F89030E36FF7
:10294000B3F1006F00F0D580236813F0080F00D0BA
:10295000012513F4802F08D02A4AD2F8903023F0B2
:102960004073616F0B43C2F89030236813F4000F7B
:1029700009D0244AD2F8903023F08053D4F8801044
:102980000B43C2F89030236813F0806F09D01D4AC2
:10299000D2F8903023F00053D4F884100B43C2F8DF
:1029A0009030236813F0006F09D0164AD2F88C30AB
:1029B00023F00073D4F888100B43C2F88C302368DE
:1029C00013F0805F09D00F4AD2F88C3023F0806377
:1029D000D4F88C100B43C2F88C3026B9236813F05E
:1029E000007F00F00681074A136823F080631360BC
:1029F000FEF766FA0646034B1B6813F0006F7AD0A9
:102A000002E000BF00380240FEF75AFA801B64283B
:102A1000F1D90320F0E0012697E60126A7E601257B
:102A2000A9E60126B9E67F4B1A6C42F080521A647F
:102A30001B6C03F080530193019B7B4A136843F4A2
:102A400080731360FEF73CFA0746774B1B6813F45C
:102A5000807F06D1FEF734FAC01B6428F5D9032025
:102A6000CAE0704B1B6F13F4407315D0226B02F455
:102A700040729A4210D06B4B1A6F22F44072196F59
:102A800041F480311967196F21F4803119671A6791
:102A90001B6F13F0010F12D1236B03F44072B2F5D8
:102AA000407F1DD05F4A936823F4F81393605D491B
:102AB0000B6F226BC2F30B0213430B6778E6FEF732
:102AC000FFF90746574B1B6F13F0020FE4D1FEF7D7
:102AD000F7F9C01B41F288339842F3D903208BE009
:102AE0005048826822F4F812504919400A43826023
:102AF000DDE7012528E7236813F0010F13D0636B8E
:102B00008BB9484AD2F88430D2F88410606803F454
:102B1000403343EA801301F070610B43A16843EA3C
:102B20000173C2F88430236813F4002F03D0E26BE2
:102B3000B2F5801F06D013F4801F1ED0236CB3F5AE
:102B4000800F1AD1374AD2F88430D2F884106068E6
:102B500003F4403343EA8013E06843EA006301F082
:102B6000E0410B43C2F88430D2F88C3023F01F03CD
:102B7000616A01390B43C2F88C30236813F0807FFF
:102B800011D0284AD2F88400D2F8841066682369EC
:102B90001B0443EA861300F07060034301F0E04138
:102BA0000B43C2F88430236813F0007F0DD06268B5
:102BB00023691B0443EA8213E26843EA0263A268C2
:102BC00043EA0273174AC2F88430164A136843F086
:102BD00080631360FEF774F90646124B1B6813F00E
:102BE000006F06D1FEF76CF9801B6428F5D903202D
:102BF00002E0012D02D0002003B0F0BD094A1368A5
:102C000023F080531360FEF75BF90546054B1B6804
:102C100013F0005F0CD0FEF753F9401B6428F5D980
:102C20000320E9E70038024000700040FFFCFF0F7E
:102C3000236813F4002F01D0E26B22B113F4801F3C
:102C40001DD0236CDBB9354AD2F88830D2F8881011
:102C5000606903F4403343EA8013A06943EA0063E8
:102C600001F0E0410B43C2F88830D2F88C3023F4F5
:102C7000F853A16A013943EA0123C2F88C30236872
:102C800013F4001F03D0E36FB3F1006F31D023685A
:102C900013F0080F19D0214AD2F88810D2F88830E2
:102CA000606903F4403343EA801301F070610B4321
:102CB000E16943EA0173C2F88830D2F88C3023F41A
:102CC0004033E16A0B43C2F88C30144A136843F076
:102CD00080531360FEF7F4F80446104B1B6813F0A2
:102CE000005F19D1FEF7ECF8001B6428F5D903202A
:102CF00082E70A4AD2F88800D2F888106569236A08
:102D00001B0443EA851300F07060034301F0E041C7
:102D10000B43C2F88830BAE700206DE70038024064
:102D20007047000090F83D30DBB2012B3AD102230E
:102D300080F83D300268D36843F00103D360036834
:102D40001A4AB3F1804F18BF93421DD0A2F57C42BE
:102D5000934219D002F58062934215D002F5806249
:102D6000934211D002F5784293420DD002F5705291
:102D7000934209D0A2F59432934205D01A6842F0EA
:102D800001021A60002070479968094A0A40062A21
:102D900018BFB2F5803F07D01A6842F001021A60EE
:102DA000002070470120704700207047000001405C
:102DB00007000100704770477047704770B50446C0
:102DC0000368DE681D6915F0020F10D016F0020FBF
:102DD0000DD06FF002021A610123037703689B692B
:102DE00013F0030F64D0FFF7E6FF0023237715F0FD
:102DF000040F12D016F0040F0FD023686FF00402F6
:102E00001A610223237723689B6913F4407F55D00E
:102E10002046FFF7D0FF0023237715F0080F12D0CC
:102E200016F0080F0FD023686FF008021A61042310
:102E300023772368DB6913F0030F46D02046FFF7A2
:102E4000BAFF0023237715F0100F12D016F0100FE1
:102E50000FD023686FF010021A61082323772368CC
:102E6000DB6913F4407F37D02046FFF7A4FF00232F
:102E7000237715F0010F02D016F0010F33D115F4AE
:102E8000025F02D016F0800F35D115F4807F02D09A
:102E900016F0800F37D115F0400F02D016F0400F1A
:102EA00039D115F0200F02D016F0200F3BD170BDA4
:102EB000FFF780FF2046FFF77FFF96E72046FFF7EA
:102EC00079FF2046FFF778FFA5E72046FFF772FF5E
:102ED0002046FFF771FFB4E72046FFF76BFF20465F
:102EE000FFF76AFFC3E723686FF001021A6120460B
:102EF000FDF7D4FCC3E723686FF402521A61204641
:102F000000F0D5F8C1E723686FF480721A6120469B
:102F100000F0CEF8BFE723686FF040021A61204648
:102F2000FFF74BFFBDE723686FF020021A612046D0
:102F300000F0BCF8BBE7000070B403683C4A904264
:102F400014BF00220122B0F1804F14BF144642F09A
:102F50000104ACB9374DA84214BF00250125364EF7
:102F6000B0420DD065B905F1804505F58235A8421E
:102F700014BF0025012506F50066B04200D01DB142
:102F800023F070034D682B43002C33D1294CA04211
:102F900014BF00240124284DA8422BD054BB04F1B7
:102FA000804404F58234A04214BF0024012405F5B6
:102FB0000065A8421ED0ECB9204CA04214BF0024EA
:102FC000012405F59A35A84214D09CB91C4CA042A6
:102FD00014BF0024012405F50065A8420AD04CB9AD
:102FE000184CA04214BF00240124A5F59635A84230
:102FF00000D01CB123F44073CC68234323F080033A
:103000004C6923438C68C4620C6884620E4CA042F5
:1030100008BF42F001020AB10A690263026842F085
:103020000402026001224261036070BC704700BF6D
:10303000000001400008004000040040004401403E
:1030400000180040002000400004014060B310B5AB
:10305000044690F83D3013B3022384F83D302146F6
:1030600051F8040BFFF768FF012384F8483084F817
:103070003E3084F83F3084F8403084F8413084F8A2
:10308000423084F8433084F8443084F8453084F882
:10309000463084F8473084F83D30002010BD80F879
:1030A0003C30FFF73DFED7E701207047704770477F
:1030B0007047026852E8003F23F4907342E8003101
:1030C0000029F6D1026802F1080353E8003F23F01B
:1030D0000103083242E800310029F3D1036E012BCD
:1030E00006D02023C0F88030002303668366704733
:1030F000026852E8003F23F0100342E80031002943
:10310000F6D1EEE710B504468368026913434269BD
:103110001343C269134301680868914A02401A4385
:103120000A602268536823F44053E1680B435360FC
:10313000A269236A1A4321688B6823F4306313431E
:103140008B602368874A934218D0874A93423AD0CB
:10315000864A93424FD0864A93425ED0854A934234
:103160006DD0854A93427FD0844A934200F091808B
:10317000834A934200F0A28010230BE0814BD3F8E6
:10318000903003F00303032B1BD8DFE803F0021693
:10319000AB180123E069B0F5004F00F0D780082B91
:1031A00000F23881DFE813F0140127011201360123
:1031B0002A013601360136012D010423EAE70823EE
:1031C000E8E71023E6E76F4BD3F8903003F00C03E9
:1031D0000C2B0ED8DFE803F0070D0D0D090D0D0DBA
:1031E000880D0D0D0B000023D4E70423D2E708233C
:1031F000D0E71023CEE7634BD3F8903003F03003D1
:10320000202B73D005D8002B72D0102B72D1042341
:10321000C0E7302B70D10823BCE75A4BD3F890306D
:1032200003F0C003802B69D005D8002B68D0402B59
:1032300068D10423AEE7C02B66D10823AAE7514B1F
:10324000D3F8903003F44073B3F5007F5ED006D816
:10325000002B5DD0B3F5807F5CD104239AE7B3F5F2
:10326000407F59D1082395E7464BD3F8903003F4BB
:103270004063B3F5006F51D006D8002B50D0B3F5A2
:10328000806F4FD1042385E7B3F5406F4CD10823FD
:1032900080E73C4BD3F8903003F44053B3F5005F24
:1032A00044D006D8002B43D0B3F5805F42D104232D
:1032B00070E7B3F5405F3FD108236BE7314BD3F89C
:1032C000903003F44043B3F5004F37D005D8BBB37B
:1032D000B3F5804F36D104235CE7B3F5404F33D1CB
:1032E000082357E7022355E7022353E7022351E758
:1032F00000234FE710234DE710234BE7022349E754
:10330000002347E7102345E7102343E7022341E763
:1033100000233FE710233DE710233BE7022339E773
:10332000012337E7102335E7102333E7022331E782
:1033300000232FE710232DE710232BE7022329E793
:10334000002327E7102325E7102323E7082B5BD86A
:10335000DFE803F01A343A5A375A5A5A1E0000BFAF
:10336000F369FFEF001001400044004000480040B6
:10337000004C004000500040001401400078004024
:10338000007C004000380240FFF78CF900283DD057
:103390006268530803EB4003B3FBF2F3A3F110019F
:1033A0004FF6EF72914233D89AB222F00F02C3F374
:1033B000420313432268D360002030E0FFF782F914
:1033C000E4E7FFF745F8E1E71748E1E7164802E0D0
:1033D000FFF768F900B3636800EB5300B0FBF3F04C
:1033E000A0F110024FF6EF739A4217D8236880B20B
:1033F000D860002013E0FFF765F9EBE7FFF728F846
:10340000E8E74FF40040E6E7012008E0002006E08E
:10341000012004E0012002E0002000E00120002360
:10342000A366E36610BD00BF0024F400436A13F0F6
:10343000080F06D00268536823F40043416B0B4326
:103440005360436A13F0010F06D00268536823F4F7
:103450000033816A0B435360436A13F0020F06D0B6
:103460000268536823F48033C16A0B435360436A94
:1034700013F0040F06D00268536823F48023016B15
:103480000B435360436A13F0100F06D00268936831
:1034900023F48053816B0B439360436A13F0200F36
:1034A00006D00268936823F40053C16B0B4393600A
:1034B000436A13F0400F0AD00268536823F4801364
:1034C000016C0B435360036CB3F5801F0BD0436A50
:1034D00013F0800F06D00268536823F40023816C38
:1034E0000B43536070470268536823F4C003416C78
:1034F0000B435360EBE72DE9F84305460E461746AC
:103500009946DDF820802B68DC6936EA04040CBF9C
:1035100001240024BC423AD1B8F1FF3FF3D0FDF7BB
:10352000CFFCA0EB0900404534D8B8F1000F33D0F0
:103530002B681A6812F0040FE5D0B6F1400218BFEC
:103540000122802EDFD0002ADDD0DA6912F0080FC8
:1035500011D1DA6912F4006FD5D04FF400621A620B
:103560002846FFF7A6FD2023C5F88430002385F800
:10357000783003200CE008241C622846FFF799FDF0
:10358000C5F88440002385F87830012000E0002051
:10359000BDE8F8830320FBE70320F9E730B583B0EB
:1035A00004460023C0F88430FDF78AFC05462268F3
:1035B000126812F0080F0FD123681B6813F0040F74
:1035C00026D12023E367C4F880300020206660669F
:1035D00084F8780003B030BD6FF07E43009303465B
:1035E00000224FF400112046FFF785FF0028E3D0AA
:1035F000226852E8003F23F0800342E800310029AE
:10360000F6D12023E367002384F878300320E1E734
:103610006FF07E4300932B4600224FF4800120463A
:10362000FFF769FF0028CCD0226852E8003F23F45E
:10363000907342E800310029F6D1226802F10803B4
:1036400053E8003F23F00103083242E8003100292B
:10365000F3D12023C4F88030002384F8783003208D
:10366000B8E768B310B50446C36F03B32423E36718
:103670002268136823F001031360636AE3B92046EC
:10368000FFF740FD012811D02268536823F49043CE
:1036900053602268936823F02A03936022681368BA
:1036A00043F0010313602046FFF778FF10BD80F858
:1036B0007830FDF785FAD9E72046FFF7B7FEDEE759
:1036C0000120704782B000230193019B01330193D5
:1036D000019BB3F1706F1CD80369002BF5DA0A2344
:1036E000019302E0019B013B0193019B002BF9D167
:1036F000036943F001030361019B01330193019BC3
:10370000B3F1706F08D8036913F0010FF4D10020F2
:1037100000E0032002B070470320FBE784B010B53F
:10372000044603A880E80E009DF81130012B1FD13C
:10373000A36B23F48033A363E268184B1340E36068
:10374000E36823F44013E3609DF81830012B0AD09E
:103750002046FFF7B7FF9DF80E30012B14D0BDE8CF
:10376000104004B07047E36843F48013E360EFE770
:10377000E36843F04003E3602046FFF7A3FFA36B39
:1037800043F48033A363E6E7A36843F00603A36032
:10379000A36843F02003A360E1E700BFBFFFBDFFC4
:1037A000836823F0010383600020704782B0002308
:1037B0000193019B01330193019BB3F1706F15D805
:1037C0000369002BF5DA00230193890141F0200100
:1037D0000161019B01330193019BB3F1706F08D824
:1037E000036913F0200FF4D1002000E0032002B0A1
:1037F00070470320FBE782B000230193019B013354
:103800000193019BB3F1706F13D80369002BF5DAB4
:103810000023019310230361019B01330193019B5A
:10382000B3F1706F08D8036913F0100FF4D10020C2
:1038300000E0032002B070470320FBE7D0F8003817
:103840001943C0F8001800207047000084B0F8B594
:10385000044607A880E80E00002306E003F14002BA
:1038600004EB82020021516001330E2BF6D99DF842
:10387000266006BBD4F8043843F00203C4F80438C9
:10388000A36B23F40013A363236843F04003236076
:10389000236843F0800323600023C4F8003E9DF8B2
:1038A0002130012B11D19DF81F304BB9002120464A
:1038B000FFF7C4FF0DE0A36B43F40013A363EBE732
:1038C00001212046FFF7BAFF03E003212046FFF75E
:1038D000B5FF10212046FFF769FF054600B101251D
:1038E0002046FFF788FF00B1012504F5006C002396
:1038F000CCF81030CCF81430CCF81C300AE0CBB93E
:103900004FF00060C2F8000900220A614FF67F32D2
:103910008A6001339DF81C10994210D904EB4312C0
:1039200002F51061D2F800090028E8DB0020C2F897
:103930000009E9E74FF09040C2F80009E4E70023EE
:103940000AE0BBB14FF09047C2F8007B0022026151
:103950004FF67F3282600133994210D904EB431253
:1039600002F53060D2F8007B002FEADB0027C2F8B6
:10397000007BEBE74FF00067C2F8007BE6E7DCF87E
:10398000103023F48073CCF810300023A3616FF063
:10399000804363619DF81E301BB9A36943F0100397
:1039A000A361A2690A4B1343A3619DF822301BB1A6
:1039B000A36943F00803A361012E04D02846BDE8A3
:1039C000F84004B07047A269024B1343A361F5E7C6
:1039D00000383C8004000040D0F8003E23F0030390
:1039E000C0F8003ED0F8043843F00203C0F80438B1
:1039F00000207047406900F00100704738B5054667
:103A0000C36823F0C043C360012913D019BBC36846
:103A100043F08043C36000240A20FDF757FA0A34BC
:103A20002846FFF7E7FF08B1C72CF5D9C82C14D0FA
:103A3000002038BDC36843F00053C36000240A204F
:103A4000FDF744FA0A342846FFF7D4FF0128EDD0E9
:103A5000C72CF4D9EAE70120EBE70120E9E770473A
:103A6000F0B585B0384FC0233B70A8237B7001238D
:103A7000BB70C823FB70354EFF2333707370B37077
:103A80000024F470324D2C706C70AC70EC7002F04D
:103A90004FFA3A787B781B0443EA0263BA7843EA28
:103AA0000223F9780B431A0202F47F0242EA016210
:103AB000190A01F47F410A4342EA136325490B6066
:103AC000327873781B0443EA0263B27843EA022334
:103AD000F07803431A0202F47F0242EA0062180AF5
:103AE00000F47F40024342EA13631B4A13602878C4
:103AF0006B781B0443EA0063A87843EA0023ED785F
:103B00002B43180200F47F0040EA05601D0A05F40B
:103B10007F45284340EA1360104B1860104D114850
:103B20000290114801900094284604F0E5F92846D7
:103B300004F074FA284604F077FA0C49284604F099
:103B4000F3FA05B0F0BD00BF380A0020340A0020A7
:103B5000300A0020440A0020400A00203C0A0020CD
:103B6000480A0020FDC300085D3F00085F3A0008D6
:103B70000020704730B58DB00C4630252A46002114
:103B8000684608F068FF2A460021684608F063FF8F
:103B90002246002303E01168E9B1013312681AB329
:103BA000032B2DD8516803EB43000CAD05EB8000CF
:103BB00040F8301C518940F82C1C002BEBD0581ECB
:103BC00003EB43010DEB810100EB400005EB8000AE
:103BD00040F8281CDFE703EB43010CA800EB810150
:103BE000002041F8280CD8E7238907494B60C1F829
:103BF00008D04C6314220548FDF72AFE002001E09E
:103C00006FF00B000DB030BD9C0A0020D40A0020DC
:103C100008B50146054804F085F8054B1B78012BD3
:103C200000D008BD024B00221A70FAE730F80008F5
:103C3000840B002008B5FDF743F908BD08B502481C
:103C4000FDF7C6FF002008BDD40A002008B51346C2
:103C50000A4601460348FDF7E1FE00B908BD4FF0F2
:103C6000FF30FBE7D40A002008B513460A46014698
:103C70000348FDF7FBFE00B908BD4FF0FF30FBE73E
:103C8000D40A002008B5FDF71BF908BD70B58CB04B
:103C900000230793089309930A930B930268414BFF
:103CA0009A4201D00CB070BDA3F590431A6B42F05C
:103CB00000721A631A6B02F000720092009A1A6B7B
:103CC00042F080621A631A6B02F080620192019ADC
:103CD0001A6B42F000621A631A6B02F000620292E1
:103CE000029A1A6B42F004021A631A6B02F0040281
:103CF0000392039A1A6B42F001021A631A6B02F0E4
:103D000001020492049A1A6B42F002021A631A6BBF
:103D100002F002020592059A1A6B42F040021A6301
:103D20001B6B03F040030693069B32230793022488
:103D300008940A940B260B9607A91B48FDF772FFFF
:103D4000862307930894002509950A940B9607A9E2
:103D50001648FDF767FF4FF4005307930894099541
:103D60000A940B9607A91248FDF75CFF4FF4205305
:103D70000793089409950A940B9607A90D48FDF737
:103D800051FF2A4605213D20FDF7F8F83D20FDF7BB
:103D900005F92A4605213E20FDF7F0F83E20FDF703
:103DA000FDF87FE70080024000080240000002406A
:103DB0000004024000180240F0B59BB004466422A3
:103DC000002101A808F047FE2248FDF701F894F809
:103DD0002D3013F0040F01D001280BDD13F0040F78
:103DE0002AD1012828DD831E032B25D8DFE803F024
:103DF0000C2A262E1848FDF7DBFC204604F032F989
:103E0000204604F073F917E04FF400664FF4804742
:103E1000114D01A92846FDF74FFE0796069701A907
:103E20002846FDF7C7FE2846FDF77AFC204604F039
:103E3000FBF8204604F036F91BB0F0BD4FF40066E5
:103E40000027E5E700264FF48047E1E700263746E4
:103E5000DEE700BF7C0A0020D40A00202DE9F041F3
:103E600082B00446354D364B2B6000268DF800603D
:103E700080238DF80130E1238DF802308DF8036046
:103E80008DF804608DF80560C5F804D04FF4000388
:103E9000AB602C4BEB602C4B2B614FF4C0636B6120
:103EA0002846FDF7C9FB8046284F38223146384660
:103EB00008F0D1FD21233B604FF440037B6124488F
:103EC00003F0DCFE062384F82C306B681A7884F843
:103ED00026205A7884F827209A7884F82820DA78DF
:103EE00084F829201A7984F82A205B7984F82B3009
:103EF00040F2DC53A38494F82D3043F00A0384F895
:103F00002D30144D14492846FCF714FF2846FCF7C1
:103F100030FF40B9B8F1000F0CD12046FFF74CFF3D
:103F200002B0BDE8F081204604F0E0F8204604F03D
:103F300099F8F5E7FCF7BEFCF2E700BFD40A0020D1
:103F40000080024088000020280100209C0A0020F8
:103F500030F800087C0A00200C00002010B5044650
:103F600070B1732384F82E30742384F82F30084BFB
:103F70006361084BA3612046FFF770FF002010BD6E
:103F8000054B4FF4C0720549054808F0FFFCE8E70F
:103F9000F9660008753B00085CD60008B4D6000836
:103FA000C4D6000810B582B004460E4803F08AFE5D
:103FB00088B1034600F1200222600B4A02614FF4EF
:103FC000C06201922268009241220021084604F05A
:103FD0003FF902B010BD054B01221A700023236087
:103FE000F7E700BF30F80008113C0008840B002000
:103FF000EFF305837BB9EFF3108313B9EFF311836C
:104000001BB1094B1B68022B08D0074B186840B93D
:1040100001221A6070476FF0050070476FF00500CD
:1040200070474FF0FF307047C85B002008B5EFF3D2
:104030000583A3B9EFF3108313B9EFF311831BB119
:104040000B4B1B68022B0DD0094B1B68012B0CD1AD
:10405000074B02221A6001F00BFA002008BD6FF036
:104060000500FBE76FF00500F8E74FF0FF30F5E7DC
:10407000C85B0020F0B587B000240594EFF30584F9
:1040800054BBEFF3108313B9EFF311831BB12B4B28
:104090001B68022B20D0F8B1002A34D01568936930
:1040A0002BB11E46013B372B02D9002015E0182604
:1040B000536813F0010F3FD1546984B14FEA940C57
:1040C00093682BB1D7685B2F02D9176907B184B900
:1040D00043B14FF0FF330BB3059807B0F0BD4FF07D
:1040E000800CEDE7D368A3B91369ABB14FF0FF3390
:1040F000F1E70293019700960B466246294601F0CC
:104100009DF80590E8E71546002318264FF0800C2F
:10411000E1E74FF0FF33DEE70023DCE705AB019377
:1041200000960B461FFA8CF2294601F0C8F80128C8
:10413000D2D000230593CFE70020CEE7C85B002054
:1041400008B5002001F0EEF8FEE70000EFF305836C
:10415000B3B910B50446EFF3108313B9EFF311832D
:104160001BB10D4B1B68022B0DD07CB1204601F01A
:1041700037F904280DD0204601F0D4F8002010BDF6
:104180006FF0050070476FF00500F8E76FF003006F
:10419000F5E76FF00200F2E7C85B002008B5EFF327
:1041A000058383B9EFF3108313B9EFF311831BB1C8
:1041B000084B1B68022B09D008B9002008BD01F08C
:1041C000C1FA0020FAE76FF00500F7E76FF005008D
:1041D000F4E700BFC85B0020034B0360034B0B6098
:1041E00080231360704700BF6C5B00206C59002077
:1041F000034B0360034B0B604FF4807313607047F5
:10420000105900201055002000F1080343604FF0C2
:10421000FF328260C36003610023036070470023A4
:104220000361704743684B609A688A605160996087
:104230000861036801330360704730B40D68B5F15D
:10424000FF3F11D000F108031C465B681A68AA42C0
:10425000FAD963684B6099608C606160086103689B
:104260000133036030BC70470469F2E703694168B9
:1042700082688A60416851605A68824206D0002292
:1042800002611A68013A1A601868704782685A60B9
:10429000F5E7000082B0002301930F4B1B68B3F1D8
:1042A000FF3F0AD04FF0500372B683F31188BFF37B
:1042B0006F8FBFF34F8F62B6FEE74FF0500372B6B9
:1042C00083F31188BFF36F8FBFF34F8F62B6019BEB
:1042D000002BFCD002B07047200000200848006886
:1042E000006880F308884FF0000080F3148862B6FD
:1042F00061B6BFF34F8FBFF36F8F00DF00BF0000C9
:1043000008ED00E0DFF80C00016841F47001016085
:104310007047000088ED00E04FF0807340F8043CE7
:1043200021F0010140F8081C054B40F80C3C40F816
:10433000202C6FF0020340F8243C4438704700BF43
:10434000954200080000000000000000000000008E
:10435000074B19680868B0E8F04F80F30988BFF38D
:104360006F8F4FF0000080F311887047AFF300802B
:10437000289D00204FF0500372B683F31188BFF3DD
:104380006F8FBFF34F8F62B60C4A1368013313600F
:10439000012B00D070474FF0E023D3F8043D13F019
:1043A000FF0FF7D04FF0500372B683F31188BFF3BD
:1043B0006F8FBFF34F8F62B6FEE700BF2000002073
:1043C0000A4B1B6853B94FF0500372B683F3118840
:1043D000BFF36F8FBFF34F8F62B6FEE7013B034A17
:1043E00013600BB983F31188704700BF20000020D1
:1043F000EFF30980BFF36F8F154B1A681EF0100F93
:1044000008BF20ED108A20E9F04F10602DE9090067
:104410004FF0500072B680F31188BFF34F8FBFF397
:104420006F8F62B601F0B6F94FF0000080F311888B
:1044300009BC19680868B0E8F04F1EF0100F08BFFB
:10444000B0EC108A80F30988BFF36F8F704700BF0C
:10445000289D002008B54FF0500372B683F31188F1
:10446000BFF36F8FBFF34F8F62B601F05FF828B1D3
:104470004FF0E0234FF08052C3F8042D002383F364
:10448000118808BD4FF0E022002313619361054BB2
:104490001B680549A1FB03139B09013B53610723DB
:1044A0001361704700000020D34D621030B583B017
:1044B0002F4B1A78D2B20192FF221A701B78DBB20E
:1044C0008DF803309DF8033003F05003294A137030
:1044D000294B07221A6009E0274A1368013B136041
:1044E0009DF803305B00DBB28DF803309DF803309C
:1044F00013F0800FF0D1204B1B68032B0AD04FF034
:10450000500372B683F31188BFF36F8FBFF34F8FE1
:1045100062B6FEE71B02184A136003F4E0631360FF
:10452000019BDBB2124A13704FF0E024D4F8203D17
:1045300043F47003C4F8203DD4F8203D43F07043A9
:10454000C4F8203DFFF79EFF00250C4B1D60FFF7D0
:10455000D9FED4F8343F43F04043C4F8343FFFF76A
:10456000BDFE01F017F9FFF795FE284603B030BDF8
:1045700000E400E0D05B0020CC5B002020000020A5
:10458000EFF305830F2B11D9134A9B5CDBB2134A5F
:1045900012789A420AD94FF0500372B683F3118809
:1045A000BFF36F8FBFF34F8F62B6FEE74FF0E0238C
:1045B000D3F80C3D03F4E063094A126893420AD928
:1045C0004FF0500372B683F31188BFF36F8FBFF3C0
:1045D0004F8F62B6FEE77047F0E300E0D05B00204B
:1045E000CC5B0020124A12F0070F1ED0D11D21F023
:1045F0000701C1F5705313440A460E4802600021BA
:1046000041601344083B23F007030B4803605960E3
:104610001960991A51601360084B1960084B1960B2
:10462000084B4FF000421A6070474FF47053E4E7B4
:10463000EC5B0020E45B0020E05B0020D85B002006
:10464000DC5B0020D45B0020164B1A461B688342BB
:10465000FBD3516802EB010C844509D0416800EBA3
:10466000010C634509D00360904219D01060704777
:104670004068014451601046F0E710B40A4C2468C9
:10468000A3420BD05B681944416013681B68036048
:10469000904200D010605DF8044B70470460F7E76B
:1046A000704700BFE45B0020E05B002038B50446A3
:1046B00000F02EFF384B1B68B3B1384B1B681C420F
:1046C0004ED1002C4ED004F1080214F0070F02D096
:1046D00022F007020832002A55D0314B1B68934262
:1046E00053D330490C6804E0FFF77CFFE5E721462F
:1046F0001C466368934202D22368002BF7D1264BF5
:104700001B68A34243D00D68083523680B606368BB
:104710009B1A102B12D9A01810F0070F0AD04FF0D7
:10472000500372B683F31188BFF36F8FBFF34F8FBF
:1047300062B6FEE743606260FFF786FF6268184971
:104740000B689B1A0B60184909688B4201D2164905
:104750000B60124B1B68134363600023236002E06D
:10476000002500E0002500F06FFF15F0070F10D0C6
:104770004FF0500372B683F31188BFF36F8FBFF30E
:104780004F8F62B6FEE70025EDE70025EBE7002539
:10479000E9E7284638BD00BFE05B0020D45B00207D
:1047A000DC5B0020E45B0020D85B0020002834D0D4
:1047B00038B50446A0F1080550F8043C174A1268C1
:1047C00013420AD14FF0500372B683F31188BFF33E
:1047D0006F8FBFF34F8F62B6FEE750F8081C51B1E0
:1047E0004FF0500372B683F31188BFF36F8FBFF39E
:1047F0004F8F62B6FEE723EA020340F8043C00F064
:1048000087FE54F8041C064A13680B4413602846BC
:10481000FFF71AFF00F018FF38BD7047D45B002087
:10482000DC5B002010B50446FFF7A4FDA26BE36B30
:104830009A4204D00024FFF7C3FD204610BD012496
:10484000F9E710B50446FFF795FDA36B23B90124E2
:10485000FFF7B6FD204610BD0024F9E770B5044609
:104860001546866B026C5AB903681BB100200136ED
:10487000A66370BD806801F0C3F80023A360F6E76B
:104880006DB9406808F06DF96368226C1344636089
:10489000A268934219D3236863602846E7E7C0689B
:1048A00008F05FF9E368226C51429B1AE3602268CA
:1048B000934202D2A3680B44E360022D01D0002092
:1048C000D5E726B1013E0020D1E72846CFE70020FA
:1048D000CDE70346026C6AB110B50846D9681144A9
:1048E000D9609C68A14201D31968D960D96808F0E1
:1048F00038F910BD704738B50546FFF73BFD95F810
:10490000454064B201E0013C64B2002C0ADD6B6AF0
:1049100043B105F1240000F0C3FF0028F3D001F0FB
:1049200059F8F0E7FF2385F84530FFF749FDFFF719
:1049300021FD95F8444064B201E0013C64B2002CD2
:104940000ADD2B6943B105F1100000F0A9FF002832
:10495000F3D001F03FF8F0E7FF2385F84430FFF78C
:104960002FFD38BD38B5E0B10D460446FFF702FD16
:104970002368E26B216C01FB0230A0600020A06381
:104980006360013A02FB0133E360FF2384F84430A3
:1049900084F845300DBB236973B9FFF711FD012081
:1049A00038BD4FF0500372B683F31188BFF36F8F99
:1049B000BFF34F8F62B6FEE704F1100000F070FF06
:1049C0000028EAD04FF0E0234FF08052C3F8042DC6
:1049D000BFF34F8FBFF36F8FDFE704F11000FFF7D6
:1049E00013FC04F12400FFF70FFCD6E738B51D4691
:1049F000049C0B4649B92460E063236401212046EE
:104A0000FFF7B0FF84F84C5038BD2260F4E750B98E
:104A10004FF0500372B683F31188BFF36F8FBFF36B
:104A20004F8F62B6FEE710B584B01C4693B10B1EE3
:104A300018BF0123002A08BF43F00103ABB94FF0B0
:104A4000500372B683F31188BFF36F8FBFF34F8F9C
:104A500062B6FEE74FF0500372B683F31188BFF3DE
:104A60006F8FBFF34F8F62B6FEE7B1FA81F35B0938
:104A7000002A18BF43F0010353B94FF0500372B638
:104A800083F31188BFF36F8FBFF34F8F62B6FEE7DA
:104A900050230393039B502B0AD04FF0500372B660
:104AA00083F31188BFF36F8FBFF34F8F62B6FEE7BA
:104AB000039B012384F8463000949DF81830FFF7DB
:104AC00095FF204604B010BDF0B585B0019298B1B5
:104AD0000F461D460446D1B1022D26D1E36B012BB2
:104AE00023D04FF0500372B683F31188BFF36F8F5A
:104AF000BFF34F8F62B6FEE74FF0500372B683F3F9
:104B00001188BFF36F8FBFF34F8F62B6FEE7036C60
:104B1000002BE1D04FF0500372B683F31188BFF33E
:104B20006F8FBFF34F8F62B6FEE700F059FF064666
:104B300068B9019B002B4AD04FF0500372B683F343
:104B40001188BFF36F8FBFF34F8F62B6FEE7002669
:104B50003DE02A4639462046FFF780FE636A7BB96E
:104B600048B14FF0E0234FF08052C3F8042DBFF35B
:104B70004F8FBFF36F8FFFF723FC012005B0F0BD0F
:104B800004F1240000F08CFE0028F4D04FF0E02364
:104B90004FF08052C3F8042DBFF34F8FBFF36F8FD8
:104BA000E9E7FFF70DFC0020E8E702A800F0C0FEEF
:104BB000012619E0002384F8443021E0002384F822
:104BC000453023E02046FFF796FE00F03DFDFFF75D
:104BD000D1FBA26BE36B9A42BBD3022DB9D0019BF0
:104BE000002BDED0002EE0D0FFF7EAFB00F090FCB7
:104BF000FFF7C0FB94F8442052B2B2F1FF3FD9D086
:104C000094F8452052B2B2F1FF3FD7D0FFF7D8FB5E
:104C100001A902A800F098FED8B92046FFF702FECD
:104C20000028CFD0019904F1100000F001FE2046C9
:104C3000FFF761FE00F008FD0028C8D14FF0E02327
:104C40004FF08052C3F8042DBFF34F8FBFF36F8F27
:104C5000BDE72046FFF74FFE00F0F6FC00208DE791
:104C60002DE9F843A0B10F4616461C460546D1B1C2
:104C7000022C26D1EB6B012B23D04FF0500372B6E0
:104C800083F31188BFF36F8FBFF34F8F62B6FEE7D8
:104C90004FF0500372B683F31188BFF36F8FBFF3E9
:104CA0004F8F62B6FEE7036C002BE1D04FF050034C
:104CB00072B683F31188BFF36F8FBFF34F8F62B665
:104CC000FEE7FFF75DFCEFF311884FF0500372B67B
:104CD00083F31188BFF36F8FBFF34F8F62B6AA6B58
:104CE000EB6B9A4206D3022C04D0002088F3118883
:104CF000BDE8F88395F845904FFA89F92246394680
:104D00002846FFF7ABFDB9F1FF3F06D009F10103DB
:104D10005BB285F845300120E8E76B6A0BB90120EA
:104D2000E4E705F1240000F0BBFD18B126B1012035
:104D30003060DBE70120D9E70120D7E7F0B585B087
:104D40000192A0B10F460446E1B100F049FE0646CB
:104D500030BB019B002B64D04FF0500372B683F33D
:104D60001188BFF36F8FBFF34F8F62B6FEE74FF02E
:104D7000500372B683F31188BFF36F8FBFF34F8F69
:104D800062B6FEE7036C002BDFD04FF0500372B623
:104D900083F31188BFF36F8FBFF34F8F62B6FEE7C7
:104DA00000263EE039462046FFF793FD013DA5630E
:104DB000236923B9FFF704FB012005B0F0BD04F11E
:104DC000100000F06DFD0028F4D04FF0E0234FF00C
:104DD0008052C3F8042DBFF34F8FBFF36F8FE9E705
:104DE000FFF7EEFA0020E8E702A800F0A1FD012697
:104DF00021E0002384F8443029E0002384F8453082
:104E00002BE02046FFF777FD00F01EFC09E020466E
:104E1000FFF771FD00F018FC2046FFF712FD002897
:104E20003FD1FFF7A7FAA56B002DBBD1019B002B4B
:104E3000D6D0002ED8D0FFF7C3FA00F069FBFFF7F9
:104E400099FA94F844305BB2B3F1FF3FD1D094F8B3
:104E500045305BB2B3F1FF3FCFD0FFF7B1FA01A904
:104E600002A800F071FD0028D1D12046FFF7E9FC2F
:104E70000028C6D0019904F1240000F0D9FC204696
:104E8000FFF739FD00F0E0FB0028CAD14FF0E02326
:104E90004FF08052C3F8042DBFF34F8FBFF36F8FD5
:104EA000BFE7002089E700000023072B0CD8074A42
:104EB00052F833200AB10133F7E7044A42F83310BD
:104EC00002EBC30250607047704700BFEC970020B0
:104ED00070B504460D461646FFF74CFA94F8443078
:104EE0005BB2B3F1FF3F0DD094F845305BB2B3F144
:104EF000FF3F0BD0FFF764FAA36B5BB12046FFF7CF
:104F0000FAFC70BD002384F84430EDE7002384F8F8
:104F10004530EFE73246294604F1240000F0A2FCB8
:104F2000ECE70000084B1B681B6823B9074B4FF0E8
:104F3000FF321A607047044B1B68DB68DB685A68F5
:104F4000024B1A60704700BF9C98002034980020E4
:104F50002DE9F04780460D4617469946089EDDF834
:104F600024A00A9C9200A521206B07F074FD236BFE
:104F70006FF040423A4403EB820727F00707A5B3DE
:104F80004FF0000CBCF10F0F09D815F80C3004EBF2
:104F90000C0282F8343013B10CF1010CF2E700235B
:104FA00084F84330372E00D93726E662E6640025C0
:104FB0002565201DFFF733F904F11800FFF72FF9DD
:104FC0002461C6F13806A6616462656584F85850AC
:104FD0004A4641463846FFF79FF92060BAF1000F74
:104FE00001D0CAF80040BDE8F087002384F83430CF
:104FF000D8E7000038B5002407E004EB84029300F2
:105000000E481844FFF700F90134372CF5D90C4D40
:105010002846FFF7F9F80B4C2046FFF7F5F80A4849
:10502000FFF7F2F80948FFF7EFF80948FFF7ECF847
:10503000084B1D60084B1C6038BD00BFC89800209D
:10504000B4980020A0980020849800207098002038
:10505000589800209C9800209898002010B504468D
:10506000FFF788F9224A136801331360214B1B684C
:105070005BB1214B1B686BB91E4B1B68DA6AE36A94
:105080009A4207D81B4B1C6004E01A4B1C60136843
:10509000012B29D0194A1368013313606364E06A55
:1050A000174B1B68984201D9154B186000EB800024
:1050B000211D144B03EB8000FFF7B4F8FFF780F9D4
:1050C0000D4B1B687BB10B4B1B68DA6AE36A9A4293
:1050D00009D24FF0E0234FF08052C3F8042DBFF304
:1050E0004F8FBFF36F8F10BDFFF784FFD2E700BF74
:1050F00054980020289D00204898002038980020CF
:105100004C980020C898002010B5044690F85930FB
:1051100073B1012B13D0022B10D04FF0500372B695
:1051200083F31188BFF36F8FBFF34F8F62B6FEE733
:10513000006BFFF73BFB2046FFF738FB10BDFFF786
:1051400035FBFBE70F4B1B68D3B110B5FFF712F926
:105150000D4BDB68DC68201DFFF788F80B4A1368ED
:10516000013B1360074A1368013B1360FFF728F9FE
:105170002046FFF7C9FF034B1B68002BE6D110BD8B
:10518000704700BF6C980020709800205498002051
:1051900008B5FFF7D7FF074B1B68012BF9D94FF074
:1051A000E0234FF08052C3F8042DBFF34F8FBFF3BD
:1051B0006F8FEEE7C898002070B504460D46194B76
:1051C0001E68194B18680430FFF750F8B4F1FF3F20
:1051D00014BF00230123002D08BF00236BB9344402
:1051E000114B1B685C60A6420ED9104B18680E4B21
:1051F00019680431FFF721F870BD0B4B19680431B1
:105200000B48FFF70FF8F7E70A4B1868064B1968C9
:105210000431FFF712F8084B1B68A342ECD9064B88
:105220001C60E9E750980020289D002098980020F5
:10523000589800209C9800203498002030B587B002
:105240000B9C8CB10C9DD5B15C250495049D5C2D07
:1052500020D04FF0500372B683F31188BFF36F8FE5
:10526000BFF34F8F62B6FEE74FF0500372B683F381
:105270001188BFF36F8FBFF34F8F62B6FEE74FF019
:10528000500372B683F31188BFF36F8FBFF34F8F54
:1052900062B6FEE7049D0C9D2C63022485F85940FC
:1052A00000240394029505AC01940A9C0094FFF736
:1052B0004FFE0C98FFF7D2FE059807B030BD2DE9E0
:1052C000F04385B00746884614461E469000FFF717
:1052D000EDF908B381465C20FFF7E8F90546A8B16F
:1052E000C0F83090002380F85930039302900D9B52
:1052F00001930C9B00933346224641463846FFF704
:1053000027FE2846FFF7AAFE012007E04846FFF7E0
:105310004DFA4FF0FF3001E04FF0FF3005B0BDE82F
:10532000F083000038B50446FFF724F824B3251DA8
:105330002846FEF79BFFA36A1BB104F11800FEF795
:1053400095FF204A1368013313601F4B1B68A3426B
:1053500015D01E4A1368013B13602046FFF7D4FEA8
:10536000FFF7E0FDFFF72CF8194B1B681BB1164B3C
:105370001B68A3420CD038BD134B1C68D7E72946E5
:105380001448FEF74FFF144A136801331360E9E72E
:10539000124B1B6853B14FF0500372B683F3118860
:1053A000BFF36F8FBFF34F8F62B6FEE74FF0E0237E
:1053B0004FF08052C3F8042DBFF34F8FBFF36F8FB0
:1053C000D9E700BF38980020289D0020549800207D
:1053D00048980020709800206C9800202C9800209D
:1053E000F8B5D0B104461D4B1B6883422FD0FEF7A1
:1053F000C1FF65691A4B1F681A4B1E68FEF7E0FF74
:10540000B54218BFBD4224D0174B9D4210D0174B58
:105410009D4220D0CDB101201AE04FF0500372B66A
:1054200083F31188BFF36F8FBFF34F8F62B6FEE730
:10543000A36A0BB102200BE094F85830DBB2012BC9
:1054400001D0032004E0022002E0042000E000205C
:10545000F8BD0220FCE70420FAE700BF289D0020E9
:105460009C98002098980020589800207098002060
:1054700010B588B000240594069407AA06A905A8CB
:10548000FEF7AAFE059B0293069B01930094234618
:10549000079A19491948FFF7D1FE194B1860D0B186
:1054A00000F06AFB012817D14FF0500372B683F366
:1054B0001188BFF36F8FBFF34F8F62B6114B4FF060
:1054C000FF321A60104B01221A60104B00221A6042
:1054D000FEF7ECFF03E00020B0F1FF3F01D008B081
:1054E00010BD4FF0500372B683F31188BFF36F8F76
:1054F000BFF34F8F62B6FEE7ECD60008915100086B
:1055000030980020349800204898002050980020BF
:10551000024A136801331360704700BF2C980020C3
:10552000014B1868704700BF50980020F8B53B4BFE
:105530001B68002B66D13A4B1D6801351D60D5B93B
:10554000384B1B681B6853B14FF0500372B683F39E
:105550001188BFF36F8FBFF34F8F62B6FEE7314AFA
:105560001168314B186810601960304A13680133B4
:105570001360FFF7D7FC2E4B1B68AB4238D90027CE
:105580002C4B1B68DB6A03EB83039A002A4B9B5866
:10559000012B3CD901273AE00127224B1B681B68ED
:1055A00043B3204B1B68DB68DC6863689D4226D3ED
:1055B000261D3046FEF75AFEA36A1BB104F11800FF
:1055C000FEF754FEE36A1D4A1268934201D91B4A52
:1055D000136003EB83039A00314617481044FEF72B
:1055E00021FEE26A134B1B68DB6A9A42D4D2D4E7ED
:1055F0000027D2E70E4B4FF0FF321A60C0E70C4A8B
:105600001360BDE70E4A13680133136000270D4B8A
:105610001B6803B101273846F8BD00BF2C98002055
:10562000509800209C980020989800203C980020DA
:1056300034980020289D0020C89800204C98002015
:10564000449800204098002038B5364B1B6853B969
:105650004FF0500372B683F31188BFF36F8FBFF31F
:105660004F8F62B6FEE7FEF785FE2E4B1A68013AB1
:105670001A601B68002B4FD12B4B1B680BB9002401
:105680004BE00024294B1B681BB3284BDB68DC680C
:1056900004F11800FEF7EAFD251D2846FEF7E6FD99
:1056A000E06A234B1B68984201D9214B186000EB3C
:1056B000800029461F4B03EB8000FEF7B3FDE26A32
:1056C0001D4B1B68DB6A9A42DCD31C4B01221A601B
:1056D000D8E70CB1FFF726FC194B1C6884B9174BAF
:1056E0001C68D4B14FF0E0234FF08052C3F8042D72
:1056F000BFF34F8FBFF36F8F01240EE0013C07D043
:10570000FFF714FF0028F9D00C4B01221A60F5E7CF
:105710000B4B00221A60E2E70024FEF751FE204600
:1057200038BD00BF2C980020549800208498002099
:105730004C980020C8980020289D00204098002008
:105740004498002010B5B8B10446114B1B6853B102
:105750004FF0500372B683F31188BFF36F8FBFF31E
:105760004F8F62B6FEE7FFF7D3FE00212046FFF71A
:1057700023FDFFF769FF48B94FF0E0234FF0805257
:10578000C3F8042DBFF34F8FBFF36F8F10BD00BF61
:105790002C980020214B1B681BB1214B01221A6061
:1057A00070471F4B00221A601E4B1B6803EB8301DE
:1057B0008A001D498A586AB90BB1013BF6E74FF0E0
:1057C000500372B683F31188BFF36F8FBFF34F8F0F
:1057D00062B6FEE7084603EB83018A000244516883
:1057E0004968516003EB830C4FEA8C020832024493
:1057F00091420BD003EB830291000B4A0A4452689A
:10580000D1680A4A1160074A1360704748686246C7
:105810009100054A0A445060ECE700BF2C98002034
:10582000409800204C980020C8980020289D002017
:1058300058B110B50C460A4A11681831FEF7FDFC44
:1058400001212046FFF7B8FC10BD4FF0500372B69F
:1058500083F31188BFF36F8FBFF34F8F62B6FEE7FC
:10586000289D002038B570B10D4614460B4A1168CA
:105870001831FEF7D7FC0CB14FF0FF352146284612
:10588000FFF79AFC38BD4FF0500372B683F31188CE
:10589000BFF36F8FBFF34F8F62B6FEE7289D0020E6
:1058A00038B5C368DC6824B304F118052846FEF750
:1058B000DDFC194B1B683BBB251D2846FEF7D6FCBB
:1058C000E06A164B1B68984201D9144B186000EB34
:1058D00080002946124B03EB8000FEF7A3FCE26A2E
:1058E000104B1B68DB6A9A4213D901200E4B1860DB
:1058F00038BD4FF0500372B683F31188BFF36F8F3A
:10590000BFF34F8F62B6FEE729460848FEF78AFCD0
:10591000E5E70020ECE700BF2C9800204C98002021
:10592000C8980020289D00204098002084980020DE
:10593000034B1B680360034B1B684360704700BF49
:105940003C98002050980020F8B5C8B10C46054698
:1059500009B3FEF70FFD1D4B19686B68C81A226862
:10596000B2F1FF3F2AD01A4E36682F68B74201D0F5
:105970008B4228D9824219D80023236001241EE0DB
:105980004FF0500372B683F31188BFF36F8FBFF3EC
:105990004F8F62B6FEE74FF0500372B683F3118863
:1059A000BFF36F8FBFF34F8F62B6FEE75B1A1344EE
:1059B00023602846FFF7BCFF002400E00024FEF728
:1059C000FFFC2046F8BD0124F9E700BF50980020F5
:1059D0003C980020014B01221A607047409800203B
:1059E000054B1B6833B1054B1B680BB1002070479A
:1059F0000220704701207047489800202C98002012
:105A000000283FD038B50446204B1B6883420AD09B
:105A10004FF0500372B683F31188BFF36F8FBFF35B
:105A20004F8F62B6FEE7036D53B94FF0500372B665
:105A300083F31188BFF36F8FBFF34F8F62B6FEE71A
:105A4000013B0365C16AC26C91421DD00BB10020BD
:105A500038BD051D2846FEF709FCE06CE062C0F188
:105A60003803A3610A4B1B68984201D9084B1860A0
:105A700000EB80002946074B03EB8000FEF7D2FBCA
:105A80000120E5E7002070470020E1E7289D002085
:105A90004C980020C8980020064B1A6813682BB950
:105AA0000123036023B9D368186870470023F8E71F
:105AB000002070472C9E002008B541600061914293
:105AC0000CD8D21A83699A4201D3012008BD011D66
:105AD0000B4B1868FEF7B1FB0020F7E79A422CBF8A
